:020000040800F2
:100000009819002071F0000819EC00081BEC00089A
:100010001DEC00081FEC000821EC000800000000A7
:1000200000000000000000000000000023EC0008B9
:1000300025EC00080000000027EC000829EC00086F
:100040008DF0000891F0000895F0000899F0000884
:100050009DF00008A1F00008A5F00008A9F0000834
:10006000ADF00008B1F00008B5F00008B9F00008E4
:10007000BDF00008C1F00008C5F00008C9F0000894
:10008000CDF00008D1F00008D5F0000859EB0008C9
:10009000C9EA000811EB0008D9F00008DDF00008FB
:1000A000E1F00008E5F00008E9F00008EDF00008D4
:1000B000F1F00008F5F00008F9F00008FDF0000884
:1000C00001F1000805F1000809F100080DF1000830
:1000D00011F1000815F1000819F100081DF10008E0
:1000E00021F1000825F1000829F100082DF1000890
:1000F00031F1000835F1000839F100083DF1000840
:1001000041F1000845F1000849F100084DF10008EF
:1001100051F1000855F10008F9EB000859F1000809
:100120005DF1000861F1000865F1000869F100085F
:100130006DF1000871F1000875F10008CDEB0008C1
:1001400085EB000879F100087DF1000881F10008D5
:1001500085F1000889F100088DF1000891F100088F
:1001600095F1000899F100089DF10008A1F100083F
:10017000A5F10008A9F10008ADF10008B1F10008EF
:10018000B5F10008B9F10008BDF10008C1F100089F
:10019000C5F10008C9F10008CDF10008D1F100084F
:0C01A0000000000000000000D5F1000885
:10800000A1DEF44910B4020052B2002A05D40A01DC
:10801000134B040064B21A5508E00A01114B040026
:1080200064B214F00F04234403F8042C10BC70470E
:1080300010B50400601EB0F1807F01D301200EE076
:10804000601E094908600F215FF0FF30FFF7DAFF7B
:10805000002006490860072005490860002010BD7F
:1080600000E400E018ED00E014E000E018E000E0BB
:1080700010E000E02DE9F04F89B0002004900020CE
:108080000390002002900020089000200790DFF865
:10809000E84C200005F0E1F860684FF47A71B0FB1D
:1080A000F1F0FFF7C5FF002800D0FEE704F00BFF5A
:1080B00005F052F804F05AFFDFF8C04C042020729B
:1080C00000206072DFF8B85C00202872002068721F
:1080D00002F064FE05F0DEF900208DF8000040F6A5
:1080E000B831029802F03BFE002825D002F02EFEA7
:1080F0000290DFF8900C0068400350F08050606000
:10810000002020600820A0727820E072FE202073FA
:10811000FE206073FF20A0736120E07312202074A2
:10812000392060740820A0742100DFF85C0C05F091
:1081300003FCDFF8581C0870DFF8546C4021300055
:1081400006F014F89DF800100843C0B2002816D1BC
:1081500002F024FE00206860002028600220A8723F
:108160008120E872032028732900DFF8280C05F02D
:10817000E3FBDFF8241C087001208DF8000040218B
:10818000300005F0F3FF002806D09DF8000001281C
:1081900002D100208DF80000DFF8007C40F2EE21D3
:1081A000386802F0DCFD002806D002F0CFFD386010
:1081B0001021300006F01AF91E21DFF8E40B0068E8
:1081C00002F0CDFD002804D000220421300006F08A
:1081D00071F81E21DFF81C0E006802F0C0FD0028B7
:1081E00004D000220821300006F064F802F0AEFD51
:1081F00004900621049802F0B2FD002841F0CA82E2
:1082000072B6DFF8F40D0068069062B60698DFF8E3
:10821000EC1D0968884201F0BD82DFF8E41DDFF83B
:10822000E42DDFF8D80D03681420434302EB03006C
:108230000860DFF8D42D08684068C0F34C30106047
:1082400008684068C004C00CDFF8C03D18600868CA
:10825000C07A162812D0172810D0242800F0D18513
:10826000262800F05B83352801F01082382800F0C2
:108270003B87392800F0388701F072BA0868407BE4
:108280000A68927B1202101805280BD0072800F00C
:10829000A781092800F00D8141F20102904200F00F
:1082A0002D8237E3DFF8686D0868C07B307008689E
:1082B000007C70700868407CB0700868807CF0704A
:1082C000DFF8500D31680160DFF84C1D096891ED51
:1082D000000ADFF8481DD0ED000A20EE200ABCEEAF
:1082E000C00A81ED000ADFF8382DD2ED000A90EDCA
:1082F000001ADFF8303DD3ED001ADFF82CCD9CEDED
:10830000002ADFF8287DD7ED002ADFF8247D9FEDD5
:10831000810AF8EE600A60EE810AB8EE611A60EE3A
:10832000810A60EE800AB8EE421A21EE221AD1EDDF
:10833000001AF8EE611A21EE211AC0EE810AFCEE55
:10834000E00AC7ED000ADFF8EC9CD7F800E0C9F8B6
:1083500000E0D2ED000A90ED001AD3ED001A9CED7A
:10836000002ADFF8D40CD0ED002ADFF8D00CF8EEAC
:10837000600A60EE810AB8EE611A60EE810A20EEB2
:10838000800AF8EE420A60EEA20A91ED001AB8EEF9
:10839000411A60EE810A80EE200ABCEEC00A80ED30
:1083A000000ADFF89C8C032288F80020DFF894ACE8
:1083B000DAF8002088F801200A6888F802200A68A4
:1083C000120A88F803200A68120C88F80420096849
:1083D000090E88F80510016888F806100168090A76
:1083E00088F807100168090C88F808100068000E6A
:1083F00088F8090098E8070005F05AF8002800D12D
:1084000000BF042088F80000DAF8000088F80100B6
:10841000386888F802003868000A88F8030038686D
:10842000000C88F804003868000E88F80500D9F8B8
:10843000000088F80600D9F80000000A88F8070054
:10844000D9F80000000C88F80800D9F80000000EE8
:1084500088F8090098E8070005F02AF8002800D1FC
:1084600000BFDFF820090068DFF8DC1B096851EA6B
:10847000403151F080516160002020600820A072DE
:108480006620E07200202073052060730020A07336
:108490003078E07370782074B0786074F078A074ED
:1084A0002100DFF8E40805F047FADFF8E01808706B
:1084B00030E2DFF85C6B0868C07B30700868007CD5
:1084C00070700868407CB0700868807CF070DFF8DD
:1084D0005C0B31680160DFF8481B91ED000ADFF8A2
:1084E000341BD1ED000ADFF83C1B91ED001ADFF8D8
:1084F000381BD1ED001A90ED002ADFF8342BB8EECE
:10850000400A20EE200AF8EE410A20EE200ADFEDB4
:10851000010A01E000007A4420EE200AF8EE610A28
:1085200060EE820ADFF8F40A90ED001AB8EE411A04
:1085300060EE810A80EE200ABCEEC00A82ED000ADD
:10854000DFF8F00A11680160DFF8F41A04230B70F9
:10855000DFF8F03A1B684B7013688B7013681B0AC6
:10856000CB7013681B0C0B711268120E4A710268F3
:108570008A710268120ACA710268120C0A720068D3
:10858000000E487207C904F093FF002800D100BF15
:10859000DFF8F0070068DFF8B41A096851EA4031E3
:1085A00051F080516160002020600820A072662098
:1085B000E07200202073092060730020A0733078DF
:1085C000E07370782074B0786074F078A074210043
:1085D000DFF8B40705F0B0F9DFF8B017087099E1DB
:1085E000DFF82C6A0868C07B30700868007C707007
:1085F0000868407CB0700868807CF070DFF8380A4A
:1086000031680160DFF8181A91ED000ADFF8041AEA
:10861000D1ED000ADFF80C1A91ED001ADFF8081A04
:10862000D1ED001A90ED002ADFF8100ADFF8EC29EE
:10863000B8EE400A20EE200AF8EE410A20EE200AA9
:10864000DFEDB50A20EE200AF8EE610A60EE820A3C
:1086500092ED001AB8EE411A60EE810A80EE200A0F
:10866000BCEEC00A80ED000ADFF8D41903230B70BA
:1086700003234B7013688B7013681B0ACB7013684D
:108680001B0C0B711268120E4A7102688A71026823
:10869000120ACA710268120C0A720068000E48724F
:1086A00007C904F005FF002800D100BFDFF8D40699
:1086B0000068DFF89C19096851EA403151F0805197
:1086C0006160002020600820A0726620E072002017
:1086D0002073072060730020A0733078E0737078F7
:1086E0002074B0786074F078A0742100DFF89806E8
:1086F00005F022F9DFF8941608700BE1DFF8100995
:108700000A68D27B02700A68127C42700A68527C46
:1087100082700968897CC17001680191DFF8F818DE
:1087200001AA0A60096891ED000ADFF8F0A8DFF8F5
:10873000E418D1ED000A20EE200ABCEEC00A8AED52
:10874000000ADFF8DC28D2ED000A91ED001ADFF80C
:10875000D438D3ED001ADFF8D0C89CED002ADFF83A
:10876000CC68D6ED002ADFF8C8689FED6B0AF8EEFA
:10877000600A60EE810AB8EE611A60EE810A60EE6E
:10878000800AB8EE421A21EE221ADAED001AF8EE4B
:10879000611A21EE211AC0EE810AFCEEE00AC6ED54
:1087A000000ADFF89078D6F800E0C7F800E0D2EDD4
:1087B000000A91ED001AD3ED001A9CED002ADFF8B3
:1087C0007818D1ED002ADFF874B8F8EE600A60EE90
:1087D000810AB8EE611A60EE810A20EE800AF8EE96
:1087E000420A60EEA20A9AED001AB8EE411A60EE53
:1087F000810A80EE200ABCEEC00A8BED000ADFF889
:1088000084150968DFF84C28126852EA413252F0A8
:1088100080526260002121600821A1726621E1720C
:1088200000212173012161731021A1730178E1738B
:108830004178217481786174C078A0742100DFF8D8
:10884000480505F079F8DFF844150870DFF8F0877F
:10885000032088F80000DFF8EC97D9F8000088F8CA
:108860000100DAF8000088F80200DAF80000000AD7
:1088700088F80300DAF80000000C88F80400DAF841
:108880000000000E88F80500DBF8000088F80600FC
:10889000DBF80000000A88F80700DBF80000000C95
:1088A00088F80800DBF80000000E88F8090098E856
:1088B000070004F0FDFD002800D100BF042088F867
:1088C0000000D9F8000088F80100306888F802003C
:1088D0003068000A88F803003068000C88F804004B
:1088E0003068000E88F80500386888F80600386897
:1088F000000A88F807003868000C88F80800386813
:10890000000E88F8090098E8070004F0D1FD00285F
:1089100000D100BF00F024BF00007A440868407B0B
:108920000B689B7B1B021818001F00F0B881401ECB
:1089300000F0B681801E00F0FB81401E00F07981BE
:10894000401E00F0D28140F6F873C01A00F02A826F
:10895000C01E00F038814EF6F373C01A0AD0401ED4
:1089600045D0401E7DD0401E00F0B580001F00F0B5
:10897000EC8044E20868007BFE2837D141200B6878
:10898000D87300200B68187400200B6858740020FE
:108990000B689874DFF8EC030068126852EA403202
:1089A00052F080526260002020600820A072662091
:1089B000E0720868007B20730868407B6073086879
:1089C000807BA0730868C07BE0730868007C20741B
:1089D0000868407C60740868807CA0742100DFF81F
:1089E000A80304F0A9FFDFF8A413087007E20868E1
:1089F000007BFE2834D102200B68D87300200B685E
:108A0000187401200B68587400200B689874DD48B6
:108A10000068126852EA403252F0805262600020D0
:108A200020600820A0726620E0720868007B207336
:108A30000868407B60730868807BA0730868C07B0F
:108A4000E0730868007C20740868407C60740868E3
:108A5000807CA0742100CC4804F06EFFCB490870E4
:108A6000CDE10868007BFE2834D113200B68D87351
:108A700000200B68187405200B68587400200B68E0
:108A80009874C0480068126852EA403252F080522E
:108A90006260002020600820A0726620E0720868F2
:108AA000007B20730868407B60730868807BA0733C
:108AB0000868C07BE0730868007C20740868407C0C
:108AC00060740868807CA0742100AF4804F034FF13
:108AD000AE49087093E10868007BFE2834D1092074
:108AE0000B68D87300200B68187403200B68587447
:108AF00000200B689874A3480068126852EA40325C
:108B000052F080526260002020600820A07266202F
:108B1000E0720868007B20730868407B6073086817
:108B2000807BA0730868C07BE0730868007C2074B9
:108B30000868407C60740868807CA07421009248BA
:108B400004F0FAFE9149087059E10868007BFE289C
:108B500003D00868007B002834D161200B68D873EB
:108B600012200B68187439200B68587402200B68A7
:108B7000987484480068126852EA403252F0805279
:108B80006260002020600820A0726620E072086801
:108B9000007B20730868407B60730868807BA0734B
:108BA0000868C07BE0730868007C20740868407C1B
:108BB00060740868807CA0742100734804F0BCFED7
:108BC000724908701BE100200B68D87300200B6805
:108BD0001874A0200B68587440200B68987469487A
:108BE0000068126852EA403252F0805262600020FF
:108BF00020600820A0726620E0720868007B207365
:108C00000868407B60730868807BA0730868C07B3D
:108C1000E0730868007C20740868407C6074086811
:108C2000807CA0742100584804F086FE57490870E3
:108C3000E5E000200B68D87300200B681874002052
:108C40000B68587400200B6898744E4800681268CE
:108C500052EA403252F080526260002020600820C8
:108C6000A0726620E0720868007B20730868407B71
:108C700060730868807BA0730868C07BE073086835
:108C8000007C20740868407C60740868807CA07454
:108C900021003D4804F050FE3C490870AFE0AEE0D2
:108CA0001068DFF8A41308600120DFF8AC1D88709D
:108CB000DFF88C0300210170802141700021817058
:108CC0000021C170002101710021417100218171D9
:108CD0000021C171002101720021417207C804F016
:108CE000E7FB002800D100BF89E01068D749086081
:108CF0000120DFF8641D0870D14800210170802137
:108D00004170002181700021C1700021017100219A
:108D10004171002181710021C17100210172002186
:108D2000417207C804F0C4FB002800D100BF66E010
:108D30001068C74908600120DFF81C1D4870C04852
:108D40000021017080214170002181700021C170DB
:108D50000021017100214171002181710021C17147
:108D6000002101720021417207C804F0A1FB002814
:108D700000D100BF43E000BF3C14002014140020C9
:108D8000281400206C140020006400407815002096
:108D9000001002400068004079150020B81400203F
:108DA000BC140020AB491068086099489A4A1268C0
:108DB00012680260DFF8A42C1268096851EA423197
:108DC00051F080516160002121600821A17266216B
:108DD000E17200212173012161731021A1730178D7
:108DE000E1734178217481786174C078A0742100A6
:108DF000DFF86C0C04F0A0FDDFF8681C087000F0D0
:108E0000AFBC0868407B0B689B7B1B02181840F2C4
:108E10000113C01A05D0401E68D0401E00F0CB8060
:108E200061E10868007B00285FD1DFF83C3CDFF897
:108E30003C0C0126078893F804C0BCF1010C16FA1B
:108E40000CFC1CEA070793F804C0BCF1010C57FAAC
:108E50000CF7FFB2002F01D1012700E00027D1F865
:108E600000C08CF80F705F79012F08D1078818793E
:108E7000401E86403E401879401E06410DE007889E
:108E80001879401E86403E401879401E0641F6B2D1
:108E9000002E01D1012600E0002608680674DFF8E4
:108EA000BC0B0068126852EA403252F08052626095
:108EB000002020600620A0726420E0720868007B19
:108EC00020730868407B60730868807BA073086823
:108ED000C07BE0730868007C20742100DFF8800B01
:108EE00004F02AFDDFF87C1B0870FCE00868007BBA
:108EF00000285FD1DFF8703BDFF8700B0126078890
:108F000093F802C0BCF1010C16FA0CFC1CEA07072E
:108F100093F802C0BCF1010C57FA0CF7FFB2002F16
:108F200001D1012700E00027D1F800C08CF80F70B4
:108F3000DF78012F08D107889878401E86403E4090
:108F40009878401E06410DE007889878401E8640BC
:108F50003E409878401E0641F6B2002E01D101260F
:108F600000E0002608680674DFF8F00A006812685E
:108F700052EA403252F080526260002020600620A7
:108F8000A0726420E0720868007B20730868407B50
:108F900060730868807BA0730868C07BE073086812
:108FA000007C20742100DFF8B80A04F0C5FCDFF86B
:108FB000B41A087097E00868007B002840F093809E
:108FC000DFF8A43ADFF8A40A0126078893F800C066
:108FD000BCF1010C16FA0CFC1CEA070793F800C060
:108FE000BCF1010C57FA0CF7FFB2002F34D1012766
:108FF00033E000BFC0140020A0140020A4140020FF
:10900000A8140020140A00207414002098140020D2
:1090100024150020481500203C1500200C150020C8
:10902000181500201C1500201415002040150020E4
:10903000001500200415002044150020081500200C
:109040004C14002000000020841400208C14002008
:1090500088140020801400200027D1F800C08CF86C
:109060000F705F78012F08D107881878401E86405E
:109070003E401878401E06410DE007881878401ED3
:1090800086403E401878401E0641F6B2002E01D1BF
:10909000012600E0002608680674DFF8C0090068B1
:1090A000126852EA403252F0805262600020206022
:1090B0000620A0726420E0720868007B20730868B4
:1090C000407B60730868807BA0730868C07BE07396
:1090D0000868007C20742100DFF8840904F02CFC6F
:1090E000DFF8801908703BE30868407B0B689B7BC6
:1090F0001B021818223804D0C01E012840F201813A
:10910000C3E2DFF8086E3078022840F0D280DFF842
:10911000008E0868C07B88F800000868007C88F82A
:1091200001000868407C88F802000868807C88F8A4
:109130000300DFF8E00D126802600968C97A392976
:1091400028D1DFF818190968006850EA413050F05A
:1091500080506060002020600820A0724820E072EB
:1091600000202073222060730020A07398F8000074
:10917000E07398F80100207498F80200607498F881
:109180000300A0742100DFF8D80804F0D5FBDFF855
:10919000D4180870DFF8847DDFF8840D006890ED46
:1091A000000AD8ED000A20EE200ABDEEC00A87EDC5
:1091B000000ADFF8700D0068002820D0DFF8680D85
:1091C00002210170DFF8641D096841708F218170F0
:1091D0000021C170002101710021417100218171C4
:1091E0000021C171002101720021417207C804F001
:1091F0005FF9002801D100BF01E004203070DFF8E2
:10920000288D022088F80000DFF8209DD9F80000A2
:1092100088F801004F2088F80200002088F8030039
:10922000002088F80400002088F80500002088F855
:109230000600002088F80700002088F808000020B9
:1092400088F8090098E8070004F032F9002801D1F5
:1092500000BF01E004203070022088F80000D9F837
:10926000000088F801005F2088F80200002088F8DC
:109270000300386888F804003868000A88F8050098
:109280003868000C88F806003868000E88F8070077
:10929000002088F80800002088F8090098E80700F6
:1092A00004F006F9002801D100BF29E00420307045
:1092B00026E0DFF8A8070068DFF8581C096851EAC3
:1092C000403151F080516160002020600820A07280
:1092D0005320E07200202073222060730020A073CE
:1092E0000120E07300202074002060740020A0742E
:1092F0002100DFF86C0704F01FFBDFF86817087027
:10930000C3E1DFF8080C0378022B40F097810523B6
:109310000370DFF8040E12680260DFF8F42B0B68AC
:10932000DB7B13700B681B7C53700B685B7C93704A
:109330000B689B7CD370DFF8E43D16681E60DFF895
:10934000E06B366896ED000ADFF8D4ADD3ED000A85
:1093500020EE200ABCEEC00A8AED000ADFF8C4CD78
:10936000DCED000A93ED001ADFF8BCEDDEED001A2B
:10937000DFF8B88D98ED002ADFF8B46DD6ED002A3D
:10938000DFF8B06D9FEDDE0AF8EE600A60EE810A4C
:10939000B8EE611A60EE810A60EE800AB8EE421AF9
:1093A00021EE221ADAED001AF8EE611A21EE211AE6
:1093B000C0EE810AFCEEE00AC6ED000ADFF8BC7DD3
:1093C000D6F80090C7F80090DCED000A93ED001A83
:1093D000DEED001A98ED002ADFF8A43DD3ED002A57
:1093E000DFF8A0BDF8EE600A60EE810AB8EE611AFF
:1093F00060EE810A20EE800AF8EE420A60EEA20AD0
:109400009AED001AB8EE411A60EE810A80EE200A49
:10941000BCEEC00A8BED000A0B685B7BD1F800C084
:109420009CF80EC05FEA0C2C1CEB0303262B06D124
:10943000DFF8543DDFF8E4CACCF8003011E00B68E7
:109440005B7BD1F800C09CF80EC05FEA0C2C1CEBD3
:109450000303252B05D17FF00043DFF8C0CACCF809
:1094600000300B68DB7A392B2CD1DFF8F0351B6824
:10947000006850EA433050F0805060600020206067
:109480000820A0724820E072002020730868407B0A
:1094900060730868407B0968897B0902081880B2FC
:1094A000000AA0731078E07350782074907860748C
:1094B000D078A0742100DFF8A80504F03DFADFF8A9
:1094C000A4150870DFF8C40C017811F0FE010170DA
:1094D000DFF8548A032088F80000DFF8509AD9F8A2
:1094E000000088F80100DAF8000088F80200DAF8D5
:1094F0000000000A88F80300DAF80000000C88F881
:109500000400DAF80000000E88F80500DBF800001F
:1095100088F80600DBF80000000A88F80700DBF88E
:109520000000000C88F80800DBF80000000E88F846
:10953000090098E8070003F0BBFF002800D100BF36
:10954000042088F80000D9F8000088F8010030688D
:1095500088F802003068000A88F803003068000CC0
:1095600088F804003068000E88F80500386888F82C
:1095700006003868000A88F807003868000C88F888
:1095800008003868000E88F8090098E8070003F022
:109590008FFF002800D100BF022088F80000D9F812
:1095A000000088F801004F2088F80200002088F8A9
:1095B0000300002088F80400002088F8050000203F
:1095C00088F80600002088F80700002088F80800C6
:1095D000002088F8090098E8070003F069FF0028D8
:1095E00000D100BF022088F80000D9F8000088F8F8
:1095F00001005F2088F80200002088F80300DFF8EF
:109600001C09016888F804100168090A88F8051027
:109610000168090C88F806100068000E88F8070039
:10962000002088F80800002088F8090098E8070062
:1096300003F03EFF002828D100BF26E0DFF81C041D
:109640000068DFF8D41A096851EA403151F08051BE
:109650006160002020600820A0725320E07200208A
:109660002073222060730020A0730020E07300208C
:109670002074002060740020A0742100DFF8E00353
:1096800004F05AF9DFF8DC13087069E00868407BE1
:109690000968897B090208182A2802D02F2831D0AE
:1096A0005EE01068DFF8E81A0860DFF8E86A012079
:1096B000307003F049FF00206860DFF87008006830
:1096C00010F5007028600820A8720B20E8720020B6
:1096D0002873002068730020A8730020E87300201E
:1096E0002874002068740020A8742900DFF8A80AF4
:1096F00004F022F9DFF8A41A0870002030702FE07F
:1097000000007A441068DFF8981A0860DFF8846A6D
:109710000120307003F018FF00206860DFF80C08AB
:10972000006810F5007028600820A8720F20E87209
:1097300001202873002068730020A8730020E873BC
:1097400000202874002068740020A8742900DFF825
:10975000480A04F0F1F8DFF8441A0870002030706D
:10976000DFF8406A316814275FF00008DFF8742DD5
:109770001420414302EB010942463900484604F0F7
:10978000E5FF3068401C3060306810F03F0030600A
:10979000FEF72FBD01F0DAFA03900621039801F0DD
:1097A000DEFA002841F0F68172B6DFF83C0D006861
:1097B000059062B6DFF8346D05983168884201F093
:1097C000E981DFF82C1DDFF82C7D3268142042433C
:1097D00007EB02000860DFF8200D0A6812680260DB
:1097E000DFF848870268D8F8003013F5E0639A4242
:1097F0001CD1DFF8082D1078FF2841F0B581DFF883
:10980000003D1878002841F0AF81DFF800070078AC
:10981000012841F0A9810868C07A002841F0A4819C
:10982000FF2010700120187001F09EB90268D8F86E
:10983000003080339A4240D1DFF8E8060A68D27AD5
:109840000B681B7B1B029A1812040B68DB7BD21877
:109850000B681B7C12EB03220B685B7C12EB034250
:109860000968897C12EB01620260DFF8A0160A78B1
:10987000012A11D1DFF8840C0178FF2941F07481AD
:10988000DFF87C1C0A78012A41F06E810122027007
:10989000FF20087001F068B90068002805D1002099
:1098A000DFF8F018087001F05FB90220087000209E
:1098B000DFF8E018087001F057B90268D8F80030F6
:1098C00013F5C0739A4240F013810868C07A0A68A1
:1098D000127B12021018801210F00100DFF8282C01
:1098E0001070DFF8280CDFF8282C136803600B6871
:1098F000DB7AD1F800C09CF80CC05FEA0C2C1CEBA2
:1099000003031360DFF80C3CD1F800C09CF80DC0D5
:109910000968897B090211EB0C011960DFF8EC85FD
:1099200098F80010042963D1006841F23721884279
:109930002FD1106841F2376188422AD118685F2818
:1099400027D101204449C870DFF8DC0500210170EF
:1099500080214170002181700021C17000210171BE
:1099600000214171002181710021C171002101722A
:109970000021417207C803F09BFD002800D100BF01
:10998000022088F800000020DFF80818087001F0B5
:10999000EBB8106840F21761884241F0E580186822
:1099A0000B2841F0E180DFF8800500210170802163
:1099B0004170002181700021C170002101710021DE
:1099C0004171002181710021C171002101720021CA
:1099D000417207C803F06CFD002800D100BF0220CF
:1099E00088F800000020DFF8AC17087001F0BCB860
:1099F00098F8000005283BD1106840F217618842B2
:109A000041F0B28018680B2841F0AE80DFF81805ED
:109A10000021017080214170002181700021C170FE
:109A20000021017100214171002181710021C1716A
:109A3000002101720021417207C803F039FD00289E
:109A400000D100BF022088F800000020DFF8441792
:109A5000087001F089B800BF601500206C14002068
:109A60000064004078150020641400207415002064
:109A700098F80000012841F077801068B0F5147F55
:109A80000BD11868042802D01868802805D13D2021
:109A9000DFF8681A087001F067B81068B0F5147F35
:109AA00008D11868062805D13E20DFF8501A087042
:109AB00001F05AB8106840F23761884208D118683E
:109AC0004F2805D14E20DFF8341A087001F04CB849
:109AD000106841F23761884241F0468018685F287B
:109AE00041F042804F20DFF8141A087001F03CB8B2
:109AF0000268D8F8003013F520739A4240F0D48001
:109B0000DFF8148A0868C07A0A68127B12021018FB
:109B10000A68527B10EB02400A68927B10EB0260ED
:109B2000C8F80000DFF8F4990868C07B0968097C70
:109B300009020818C9F80000DFF8D00300780128EE
:109B400003D10120DFF8D8190870DFF8D8A99AF8F6
:109B5000020001283AD100208AF8020098ED000A9C
:109B6000DFF8C419B8EE400AED480068D0ED000AED
:109B700080EE200A81ED000AE54809680160DFF8FF
:109B8000AC190968DFF8A829126852EA413252F08C
:109B900080526260002121600821A1726621E17279
:109BA00000212173052161730021A1730178E17304
:109BB0004178217481786174C078A0742100DFF845
:109BC000740903F0B9FEDFF8701908709AF8010003
:109BD000012840F0C98700208AF8010098ED000AAA
:109BE000DFF84409B8EE400ACD490968D1ED000A12
:109BF00080EE200A80ED000ADFF8281591ED000ABA
:109C0000D0ED000ADFF8200590ED001ADFF81C0502
:109C10000068D9F80020DFF82419B8EE400A20EED9
:109C2000200AF8EE410A20EE200ADFEDBB0A20EE02
:109C3000200A504300EE900AF8EE600A98ED001AF0
:109C4000B8EE411A60EE810A80EE200A81ED000A2A
:109C5000AF4809680160DFF8D4180968DFF8E02828
:109C6000126852EA413252F0805262600021216053
:109C70000821A1726621E17200212173072161731D
:109C80000021A1730178E1734178217481786174B6
:109C9000C078A0742100DFF89C0803F04DFEDFF8C7
:109CA0009818087000F060BF0268D8F8003013F50B
:109CB00060739A4240F08E80DFF888080A68D27A92
:109CC0000B681B7B1B029A180260DFF87C280B686C
:109CD000DB7B0968097C0902C91811608B49097886
:109CE000012903D10121DFF864381970DFF8341835
:109CF0000B78012B40F0388700230B700168126845
:109D0000914240F03187DFF8101891ED000ADFF83A
:109D10001828B8EE400A824B1B68D3ED000A80EE8B
:109D2000200A82ED000ADFF8FC3393ED000AD2ED41
:109D3000000ADFF8F42392ED001ADFF8F02313682D
:109D40000068DFF80C28B8EE400A20EE200AF8EE92
:109D5000410A20EE200ADFED700A20EE200A43437C
:109D600000EE903AF8EE600A91ED001AB8EE411A52
:109D700060EE810A80EE200A82ED000A64481168D4
:109D80000160DFF8A8170968DFF8B427126852EA03
:109D9000413252F080526260002121600821A1729C
:109DA0006621E17200212173092161730021A173F1
:109DB0000178E1734178217481786174C078A0746E
:109DC0002100DFF8700703F0B7FDDFF86C170870AB
:109DD00000F0CABE0268D8F8003013F590639A42CA
:109DE00040F0AA80DFF86C870868C07A0A68127BA6
:109DF000120210180A68527B10EB02400A68927B2C
:109E000010EB0260C8F80000DFF84C970868C07BD0
:109E10000968097C09020818A9F80000D8F8002090
:109E2000DFF83817DFF838A7DAF80000121A0A60EE
:109E3000DFF8F0B69BF80300012835D100208BF83D
:109E4000030091ED000A3248B8EEC00A34490968AF
:109E5000D1ED000A80EE200A80ED000ADFF8CC1672
:109E600009682C4A126852EA413252F0805262600C
:109E7000002121600821A1724E21E172002121738D
:109E8000222161730021A1730178E173417821746B
:109E900081786174C078A0742100DFF8980603F01F
:109EA0004BFDDFF894160870D8F80000CAF80000DF
:109EB000B9F80000DFF82C1C08801448007801284D
:109EC00040F052860120DFF8201C0870DFF82C06D5
:109ED0000178FF2940F04886DFF8101C0A78022A32
:109EE00026DA4F2202700878401C08700878012892
:109EF00040F03A8601208BF8020001208BF8000028
:109F000001208BF8010000F02FBE00BF7D1500205E
:109F1000241500207814002000007A441015002039
:109F20003C150020381500204C14002000000020B3
:109F30005021017000F018BE0068D8F8002012F51A
:109F4000B062904240F010860868C07A432808D07A
:109F50004B2806D04F2804D0602800F0568200F02D
:109F600003BE0868007B0A68527B1202101842F296
:109F70000A22801A07281CD91A3805285ED940F20F
:109F8000E312801A00F09F8043F63942801A00F0F5
:109F9000AC80203800F0D080213800F00581801E90
:109FA00000F04881401E00F05581401E00F0BC8149
:109FB0002AE2DFF83C0B007801283ED10868C07B1C
:109FC000212804D032D3232821D010D32EE0DFF86B
:109FD000240B0A68127B0A3A521C02700A68D27B70
:109FE0000B681B7C1B029A18120A42701EE0DFF8F5
:109FF000040B0A68127B0A3A521C82700A68D27BF0
:10A000000B681B7C1B029A18120AC2700EE0DFF864
:10A01000E40A0A68127B0A3A521C02710A68D27B6F
:10A020000B681B7C1B029A18120A42710868007B9D
:10A030000A383F30DFF8C4140870E5E1DFF8B00AF1
:10A04000007801283ED10868C07B212804D032D393
:10A05000232821D010D32EE0DFF8980A0A68127B5B
:10A06000243A093202700A68D27B0B681B7C1B02FF
:10A070009A18120A42701EE0DFF8780A0A68127B0A
:10A08000243A093282700A68D27B0B681B7C1B025F
:10A090009A18120AC2700EE0DFF8580A0A68127B9A
:10A0A000243A093202710A68D27B0B681B7C1B02BE
:10A0B0009A18120A42710868007B24384730DFF88A
:10A0C0003C140870A0E1DFF890040A68D27B0968AC
:10A0D000097C0902891801800088DFF8081A0880C5
:10A0E0004D20DFF8181408708EE10868007C00022B
:10A0F0000968C97B4018042801D080280BD1DFF8FB
:10A10000FC030178FF2906D1DFF8E4190978012959
:10A1100001D10221017077E17C1400204815002054
:10A120000C150020181500201C1500201415002007
:10A130004015002000150020DFF8080C0A68D27BCB
:10A140000B681B7C1B029A180B685B7C12EB0342AA
:10A150000968897C12EB01620260DFF894190978C2
:10A16000012909D10068DFF8E01B0968884203D1A2
:10A170003C20DFF88813087046E100BF041500207A
:10A180004415002008150020010000808B150020D8
:10A19000901400208A1500200068004079150020E6
:10A1A00094140020A4140020DB480A68D27B0B68BA
:10A1B0001B7C1B029A180B685B7C12EB034209683C
:10A1C000897C12EB0162026090ED000AD649B8EE7C
:10A1D000400ADFF8A40B0068D0ED000A80EE200AE8
:10A1E00081ED000ADFF8940B09680160CF49096826
:10A1F000CF4A126852EA413252F080526260002126
:10A2000021600821A1726621E172002121730521DC
:10A2100061730021A1730178E17341782174817821
:10A220006174C078A0742100C24803F085FBC24964
:10A230000870E9E00868C07B0A68127C12021018F6
:10A240000A68527C10EB02400A68927C10EB0260B4
:10A25000BC4A1060BC480A68D27B0B681B7C1B029E
:10A260009A180B685B7C12EB03420968897C12EB3D
:10A2700001620260B3490A680068824253D1DFF884
:10A28000000B90ED000AA848D0ED000ADFF8F40AB0
:10A2900090ED001ADFF8F00A00680A68AC49B8EEE1
:10A2A000400A20EE200AF8EE410A20EE200ADFEDF7
:10A2B000950A20EE200A504300EE900AF8EE600A5C
:10A2C000954890ED001AB8EE411A60EE810A80EED2
:10A2D000200A81ED000ADFF8A40A096801609349A9
:10A2E0000968DFF8A82A126852EA413252F0805217
:10A2F0006260002121600821A1726621E1720021C3
:10A300002173092161730021A1730178E173417800
:10A31000217481786174C078A0742100854803F0AD
:10A320000BFB854908706FE07C480A68D27B0B689C
:10A330001B7C1B029A180B685B7C12EB03420968BA
:10A34000897C12EB01620260734991ED000A764A42
:10A35000B8EE400ADFF8203A1B68D3ED000A80EE21
:10A36000200A82ED000ADFF8183A93ED000AD2EDD8
:10A37000000ADFF8102A92ED001ADFF80C2A1368A1
:10A3800000686E4AB8EE400A20EE200AF8EE410A54
:10A3900020EE200ADFED5B0A20EE200A434300EEA8
:10A3A000903AF8EE600A91ED001AB8EE411A60EEAC
:10A3B000810A80EE200A82ED000ADFF8C0091168E8
:10A3C00001605A4909685E4A126852EA413252F005
:10A3D00080526260002121600821A1726621E17231
:10A3E00000212173072161730021A1730178E173BA
:10A3F0004178217481786174C078A07421004D483F
:10A4000003F09AFA4C490870AEE30868007B0A68CA
:10A41000527B120210184FF4A052801A00F066818D
:10A42000401E00F08B81401E00F0B081401E00F005
:10A43000D58140F2FD12801A00F09480401E00F099
:10A44000C280401E00F0F080401E00F01E8140F2ED
:10A45000FD12801A00F0B382401E00F0D782401E29
:10A4600000F0FB82401E00F01F8340F2FD12801AB4
:10A4700000F0DC81401E00F01282401E00F03F829E
:10A48000401E00F06C8244F23D62801A40F03B8333
:10A49000DFF8FC08006846F24001884220D1DFF86E
:10A4A0005006007806281BD120480068DFF8E41821
:10A4B000096851EA403151F080516160002020600C
:10A4C0000420A0724420E072002020732A206073D0
:10A4D0000020A0732100174803F02EFA16490870D7
:10A4E00011E300BF140A0020AC140020B0140020B7
:10A4F000B4140020140F00209C1400207C150020B0
:10A500007B15002000007A4482150020D014002022
:10A51000CC140020C8140020E0140020DC1400201B
:10A520008515002060150020581500206C140020AF
:10A530008414002000640040781500205415002089
:10A5400088140020D4140020D81400208615002080
:10A5500050150020EC14002074150020F014002089
:10A56000E8140020DFF88805007801282AD108685F
:10A57000807B002815D1DFF8D81A0878002806D18A
:10A580000320DFF814281070012008701AE0087802
:10A59000012817D11720DFF800281070002008705C
:10A5A00010E00868807B012804D10B20DFF8E81751
:10A5B000087007E00868807B022803D10C20DFF8D0
:10A5C000D81708709FE2DFF82805007801282AD103
:10A5D0000868807B002815D1DFF8741A48780028B5
:10A5E00006D10420DFF8B0271070012048701AE06F
:10A5F0004878012817D11820DFF89C271070002018
:10A60000487010E00868807B012804D10D20DFF835
:10A610008817087007E00868807B022803D10E20A5
:10A62000DFF8741708706EE2DFF8C40400780128C0
:10A630002AD10868807B002815D1DFF8141A8878A1
:10A64000002806D10520DFF85027107001208870FF
:10A650001AE08878012817D11920DFF83C271070FC
:10A660000020887010E00868807B012804D10F204A
:10A67000DFF82417087007E00868807B022803D100
:10A680001020DFF8141708703DE2DFF8640400784A
:10A6900001282AD10868807B002815D1DFF8B0197D
:10A6A000C878002806D10620DFF8EC2610700120BB
:10A6B000C8701AE0C878012817D11A20DFF8D82608
:10A6C00010700020C87010E00868807B012804D159
:10A6D0001120DFF8C416087007E00868807B0228A4
:10A6E00003D11220DFF8B01608700CE2DFF8000486
:10A6F0000078012821D10868807B012815D1DFF876
:10A7000058190878002806D10720DFF88C26107029
:10A710000120087011E0087801280ED11B20DFF815
:10A72000782610700020087007E00868807B0228F7
:10A7300003D11320DFF860160870E4E1DFF8B003FE
:10A740000078012821D10868807B012815D1DFF825
:10A7500008194878002806D10820DFF83C26107038
:10A760000120487011E0487801280ED11C20DFF844
:10A77000282610700020487007E00868807B0228B7
:10A7800003D11420DFF810160870BCE1DFF8600375
:10A790000078012821D10868807B012815D1DFF8D5
:10A7A000B8188878002806D10920DFF8EC25107049
:10A7B0000120887011E0887801280ED11D20DFF873
:10A7C000D82510700020887007E00868807B022878
:10A7D00003D11520DFF8C015087094E1DFF81003ED
:10A7E0000078012821D10868807B012815D1DFF885
:10A7F0006818C878002806D10A20DFF89C25107058
:10A800000120C87011E0C87801280ED11E20DFF8A1
:10A81000882510700020C87007E00868807B022837
:10A8200003D11620DFF8701508706CE1B04800788D
:10A83000012833D10868807B002815D1DFF81C1867
:10A840000878002806D11F20DFF84C251070012061
:10A85000087023E00878012820D13420DFF838255B
:10A8600010700020087019E00868807B012804D16E
:10A870002720DFF82415087010E00868807B022884
:10A8800004D12820DFF81015087007E00868807BE5
:10A89000032803D12920DFF80015087033E194481C
:10A8A000007801282AD10868807B002815D1DFF8BC
:10A8B000AC174878002806D12020DFF8DC2410707F
:10A8C000012048701AE04878012817D13520DFF8B8
:10A8D000C82410700020487010E00868807B0128B0
:10A8E00004D12A20DFF8B014087007E00868807BE4
:10A8F000022803D12B20DFF8A014087003E17C4864
:10A90000007801282AD10868807B002815D1DFF85B
:10A910004C178878002806D12120DFF87C2410709D
:10A92000012088701AE08878012817D13620DFF8D6
:10A93000682410700020887010E00868807B01286F
:10A9400004D12C20DFF85014087007E00868807BE1
:10A95000022803D12D20DFF840140870D3E06448AA
:10A96000007801282AD10868807B002815D1DFF8FB
:10A97000EC16C878002806D12220DFF81C241070BD
:10A980000120C8701AE0C878012817D13720DFF8F5
:10A99000082410700020C87010E00868807B01282F
:10A9A00004D12E20DFF8F013087007E00868807BE0
:10A9B000022803D12F20DFF8E0130870A3E04C48F1
:10A9C0000078012821D10868807B012815D1DFF8A3
:10A9D00090160878002806D12320DFF8BC231070D9
:10A9E0000120087011E0087801280ED13820DFF826
:10A9F000A82310700020087007E00868807B0228F8
:10AA000003D13020DFF8901308707CE038480078DC
:10AA1000012821D10868807B012815D1DFF8401674
:10AA20004878002806D12420DFF86C23107001201C
:10AA3000487011E0487801280ED13920DFF85823FA
:10AA400010700020487007E00868807B022803D15E
:10AA50003120DFF84413087055E0254800780128BC
:10AA600021D10868807B012815D1DFF8F41588789A
:10AA7000002806D12520DFF82023107001208870DF
:10AA800011E0887801280ED13A20DFF80C231070ED
:10AA90000020887007E00868807B022803D13220FC
:10AAA000DFF8F41208702EE01148007801282AD14E
:10AAB0000868807B01281FD1DFF8A415C87800281A
:10AAC00006D12620DFF8D02210700120C8701AE0CD
:10AAD000C878012817D13B20DFF8BC221070002075
:10AAE000C87010E07615002087150020881500201A
:10AAF0007D150020641400200868807B022802D1A4
:10AB00003320A5490870DFF88892D9F800000028A2
:10AB10002AD000206860D8F8000010F5C0602860D6
:10AB20000820A8724020E872D9F800002873D9F8EC
:10AB30000000000A6873D9F80000000CA873D9F867
:10AB40000000000EE87300202874002068740020C4
:10AB5000A8742900DFF8780902F0EEFEDFF804158A
:10AB600008700020C9F8000031685FF014085FF039
:10AB70000009142041430F444A464146380003F07F
:10AB8000E5FD3068401C3060306810F03F003060F8
:10AB9000FEF703BEDFF8D004007800F0F3FADFF828
:10ABA000CC743878002811D15FF00A085FF00009F2
:10ABB000DFF8BC64B2464A464146504603F0C6FD43
:10ABC000300002F09AFCDFF8AC140870DFF8A484BF
:10ABD00098F8000000283DF482AADFF89464B07869
:10ABE0008F282FD101203870002068603078000253
:10ABF0007178401828600820A872B078E872F07860
:10AC00002873307968737079A873B079E873F07934
:10AC10002874307A6874707AA8742900DFF8B00854
:10AC200002F08AFEDFF83C1408700A275FF0000982
:10AC30004A463900300003F089FD002088F8000002
:10AC4000FDF74DBAB0785F283DD101203870DFF8AC
:10AC5000280400684F287DF442AADFF82004006829
:10AC600040F2376188427DF43AAA0020686030786B
:10AC700000027178401828600820A872B078E87245
:10AC8000F0782873307968737079A873B079E873B5
:10AC9000F0792874307A6874707AA8742900DFF823
:10ACA000300802F049FEDFF8BC1308700A275FF095
:10ACB00000094A463900300003F048FD002088F8BA
:10ACC0000000FDF70CBA96E8070002F0BFF8FDF7A8
:10ACD00006BA81B0DFF8A8030068C0F3031090F053
:10ACE0000F00ADF80000BDF80000400010F0AA0011
:10ACF000BDF8001089B2490811F055010843ADF8BC
:10AD00000000BDF8000080B2800810F03300BDF8EC
:10AD10000010890011F0CC010843ADF80000BDF827
:10AD200000006030ADF80000BDF80000702804DBC2
:10AD30006F20ADF8000080B200E00020BDF80000F8
:10AD400001B07047C4140020F814002072B6DFF878
:10AD500034130968080062B60028F7D0704772B64D
:10AD6000DFF820231268121A62B68A4201D200204C
:10AD700000E00120704700003C1500202415002051
:10AD8000181500201C150020141500208C1400201C
:10AD900020150020901400207C1500202DE9F84F8C
:10ADA000B94800210160002101700021417000219B
:10ADB00081700021C170B548B5490160B549B64AF6
:10ADC0000A60B64A5FF07E531360B54B00241C60E6
:10ADD000B44CB54B2360B54BB54D1D60B54D162633
:10ADE0002E60B54E01273760246894ED000AB34CFD
:10ADF000D2ED000A20EE200ABCEEC00A84ED000A63
:10AE000096ED000AD2ED000A93ED001AD5ED001A76
:10AE100090ED002AAA48DFED8F2AB8EE400A20EE16
:10AE2000200AF8EE410A20EE200A20EE220AF8EE6F
:10AE3000610A60EE820A94ED001AB8EE411A60EEE3
:10AE4000810A80EE200ABCEEC00A80ED000A00688C
:10AE50009C4F386096ED000AD2ED000A93ED001A7F
:10AE6000D5ED001A91ED002AB8EE400A20EE200A36
:10AE7000F8EE410A20EE200A20EE220AF8EE610ADE
:10AE800060EE820A94ED001AB8EE411A60EE810A73
:10AE900080EE200ABCEEC00A8B4880ED000A8B4889
:10AEA0000021017000214170002181700021C170DA
:10AEB0008748002101608748002101608648002101
:10AEC00001600020684908705FF0FF308349086026
:10AED00069490860824908608249086082490860BF
:10AEE00082490860824908600021824A116000217D
:10AEF000814A11600021814A116081490860002067
:10AF00008049087000208049088000207F4908801F
:10AF100000207F49086000207E4908704E480021CB
:10AF2000017000214170002181700021C1704848EA
:10AF30000021017000214170002181700021C17049
:10AF400047480021017000214170002181700021DB
:10AF5000C1704248002101700021417000218170C0
:10AF60000021C17000206C49087000206B490870F6
:10AF700000206B49087000206A49087000206A4967
:10AF80000870012069490870002069490870002094
:10AF90006849087000206849087001206749086006
:10AFA0008F206749086000206649087000206649C4
:10AFB00008700020654908700320654908604FF457
:10AFC000A06500950024634E22000099300003F034
:10AFD000BDFB002060490860002060490860002631
:10AFE0005F4F32002900380003F0B0FB00205D49BC
:10AFF000086000205C49086006275FF00008DFF861
:10B000006CB1D94642463900484603F09FFB5FF0D9
:10B0100006095FF0000A52464946584603F096FB7F
:10B02000002053490860002052490860002052491E
:10B03000086000205149087000200E490870002067
:10B040000A490870FF204E490860BDE8F18F00BF33
:10B050002C15002000007A4428150020341500200B
:10B0600030150020791500207D1500208A1500205C
:10B070005814002089150020C8140020CC1400208A
:10B08000100C0240701400202415002040150020F0
:10B090000000A04044150020000020414815002079
:10B0A0004C1500203C150020008000081C150020D5
:10B0B0000090D00314150020181500200C15002056
:10B0C0000015002004150020081500206015002040
:10B0D00050150020581500205C150020C4140020D5
:10B0E000D4140020D8140020DC140020E014002028
:10B0F000E4140020EC140020E8140020F0140020D8
:10B10000F41400207E150020741500207615002010
:10B11000201500207F1500208515002086150020B1
:10B12000871500208015002081150020841500203F
:10B1300082150020831500208B150020F8140020B4
:10B14000FC1400207B1500207C15002088150020B1
:10B1500000000020140A0020A0140020A4140020E5
:10B16000140F0020AC140020B01400206414002040
:10B17000B8140020BC140020C01400207A15002050
:10B18000381500202DE9F84304002000C0B2002843
:10B1900004D02000C0B2012841F05686DFF8EC0B45
:10B1A00001210170DFF8E85B2978002900F0CA80EE
:10B1B000022900F01B81C0F0EE80042900F06A81B2
:10B1C000C0F03E81062900F0BD81C0F090810829C1
:10B1D00000F00E82C0F0E1810A2900F05F82C0F029
:10B1E00032820C2900F0B082C0F083820E2900F078
:10B1F0000183C0F0D482102900F05283C0F025836F
:10B20000122900F0A383C0F07683142900F0F283A2
:10B21000C0F0C683162900F03B84C0F013841829BF
:10B2200000F08484C0F05B841A2900F0CB84C0F065
:10B23000A3841C2900F01285C0F0EA841E2900F0C6
:10B240005985C0F03185202900F0AE85C0F07885A1
:10B25000222900F0FD85C0F0D185242900F0518617
:10B26000C0F02186262900F0A486C0F07686282921
:10B2700000F0F586C0F0C8862A2900F04687C0F0A5
:10B2800019872C2900F09787C0F06A872E2900F0D3
:10B29000E887C0F0BB87302901F03880C1F00C800E
:10B2A000322901F08980C1F05C80342901F0D88016
:10B2B000C1F0AD80362901F02181C1F0F880382934
:10B2C00001F06B81C1F041813A2901F0B681C1F0F2
:10B2D0008C813C2901F00482C1F0D6813E2901F025
:10B2E0004882C1F02082402901F09C82C1F0708226
:10B2F000422901F0EB82C1F0BF82442901F03A8378
:10B30000C1F00E83462901F08983C1F05D8348298D
:10B3100001F0D683C1F0AB834A2901F02384C1F048
:10B32000F8834C2901F07084C1F045844E2901F066
:10B33000BD84C1F09284502901F06085C1F032854E
:10B3400001F082BDDFF84C0A007800281FD1DFF839
:10B35000481A002048600020086008208872812078
:10B36000C872DFF8380A00680873002048730020AC
:10B3700088730020C87300200874002048740020DF
:10B380008874534802F0D8FADFF8141A0870FF20C6
:10B39000287001F059BDDFF8001A00204860DFF87E
:10B3A000FC09006810F5C0600860082088722B2036
:10B3B000C872402008736020487300208873802082
:10B3C000C873002008740020487400208874404826
:10B3D00002F0B2FADFF8C819087046F24000DFF850
:10B3E000C4190860FF20287001F02EBDDFF8A819ED
:10B3F00000204860DFF8A409006810F5C06008600C
:10B40000082088722F20C872002008731620487305
:10B41000002088730020C87300200874002048743E
:10B42000002088742A4802F087FADFF8741908703F
:10B430000020DFF870190860FF20287001F004BDBB
:10B44000DFF8541900204860DFF85009006810F553
:10B45000C0600860082088722F20C872012008731D
:10B4600016204873002088730020C87300200874D9
:10B470000020487400208874154802F05DFADFF857
:10B48000201908700020DFF81C190860FF202870C0
:10B4900001F0DABCDFF8001900204860DFF8FC0892
:10B4A000006810F5C0600860082088722F20C872FC
:10B4B0000220087316204873002088730020C87388
:10B4C000002008740020487400208874004801E0BF
:10B4D0000068004002F030FADFF8C418087000205D
:10B4E000DFF8C0180860FF20287001F0ADBCDFF85D
:10B4F000A81800204860DFF8A408006810F5C060B4
:10B500000860082088722F20C87203200873162054
:10B510004873002088730020C8730020087400203E
:10B52000487400208874DFF8BC0902F005FADFF8DF
:10B53000701808700020DFF86C180860FF20287071
:10B5400001F082BCDFF8501800204860DFF84C089A
:10B55000026812F5C0620A6008228A722322CA7247
:10B5600000220A7314224A7301228A730068C87386
:10B57000022008740020487480208874DFF8640971
:10B5800002F0DAF9DFF8181808700020DFF8141854
:10B590000860FF20287001F057BCDFF8FC1700207E
:10B5A0004860DFF8F807026812F5C0620A600822F6
:10B5B0008A722322CA7201220A7314224A73012258
:10B5C0008A730068C87303200874002048748020C0
:10B5D0008874DFF8100902F0AFF9DFF8C4170870BB
:10B5E0000020DFF8C0170860FF20287001F02CBC95
:10B5F000DFF8A41700204860DFF8A007026812F502
:10B60000C0620A6008228A722322CA7202220A7366
:10B6100014224A7301228A730068C87304200874D4
:10B620000020487480208874DFF8B80802F084F99C
:10B63000DFF86C1708700020DFF868170860FF203B
:10B64000287001F001BCDFF8501700204860DFF8D7
:10B650004C07026812F5C0620A6008228A7223222F
:10B66000CA7203220A7314224A7301228A73006881
:10B67000C873052008740020487480208874DFF89F
:10B68000640802F059F9DFF8181708700020DFF895
:10B6900014170860FF20287001F0D6BBDFF8F816F9
:10B6A00000204860DFF8F406006810F5C06008600C
:10B6B000082088722320C87200200873162048735F
:10B6C000012088731020C87300200874402048743B
:10B6D00060208874DFF80C0802F02EF9DFF8C0163D
:10B6E00008700020DFF8BC160860FF20287001F009
:10B6F000ABBBDFF8A41600204860DFF8A0060068A6
:10B7000010F5C0600860082088722320C8720020ED
:10B71000087316204873022088732020C873002005
:10B7200008747A20487460208874DFF8B80702F043
:10B7300003F9DFF86C1608700020DFF8681608605F
:10B74000FF20287001F080BBDFF84C160020486015
:10B75000DFF84806006810F5C060086008208872AD
:10B760002320C872012008731620487301208873B3
:10B770002020C873002008748120487460208874D9
:10B78000DFF8600702F0D8F8DFF814160870002020
:10B79000DFF810160860FF20287001F055BBDFF8B5
:10B7A000F81500204860DFF8F405006810F5C06067
:10B7B0000860082088722320C872012008731620B0
:10B7C0004873022088732020C873002008748520E5
:10B7D000487460208874DFF80C0702F0ADF8DFF8D9
:10B7E000C01508700020DFF8BC150860FF20287025
:10B7F00001F02ABBDFF8A01500204860DFF89C05A7
:10B80000006810F5C0600860082088722320C872A4
:10B810000220087316204873012088732020C87303
:10B82000002008748320487460208874DFF8B40610
:10B8300002F082F8DFF8681508700020DFF8641560
:10B840000860FF20287001F0FFBADFF84C150020D7
:10B850004860DFF84805006810F5C06008600820FF
:10B8600088722320C87202200873162048730220B1
:10B8700088732020C87300200874842048746020D6
:10B880008874DFF8600602F057F8DFF814150870C6
:10B890000020DFF810150860FF20287001F0D4BAEE
:10B8A000DFF8F41400204860DFF8F004006810F5B9
:10B8B000C0600860082088722320C87203200873C3
:10B8C00016204873012088732020C8730020087454
:10B8D0008320487460208874DFF8080602F02CF892
:10B8E000DFF8BC1408700020DFF8B8140860FF20EF
:10B8F000287001F0A9BADFF8A01400204860DFF832
:10B900009C04006810F5C06008600820887223203D
:10B91000C872032008731620487302208873202001
:10B92000C873002008748420487460208874DFF88D
:10B93000B40502F001F8DFF8681408700020DFF8A1
:10B9400064140860FF20287001F07EBADFF8481404
:10B9500000204860DFF84404006810F5C06008600B
:10B96000082088722F20C8720020087314204873A2
:10B9700002208873FF26CE730020087400204874CC
:10B9800000208874DFF85C0501F0D6FFDFF81014A2
:10B9900008700020DFF80C1408602E7001F054BA13
:10B9A000DFF8F41300204860DFF8F003006810F5BA
:10B9B000C0600860082088722F20C87201200873B8
:10B9C0001420487302208873FF26CE730020087469
:10B9D0000020487400208874DFF8080501F0ACFFEF
:10B9E000DFF8BC1308700020DFF8B81308602E7071
:10B9F00001F02ABADFF8A01300204860DFF89C03AA
:10BA0000006810F5C0600860082088722F20C87296
:10BA1000022008731420487302208873FF26CE7317
:10BA2000002008740020487400208874DFF8B404F3
:10BA300001F082FFDA4908700020DA4908602E70B0
:10BA400001F002BAD44900204860D448006810F5DB
:10BA5000C0600860082088722F20C8720320087315
:10BA60001420487302208873FF26CE7300200874C8
:10BA70000020487400208874DFF8680401F05CFF3F
:10BA8000C74908700020C74908602E7001F0DCB972
:10BA9000C14900204860C148006810F5C0600860D6
:10BAA000082088722F20C87200200873162048735F
:10BAB000002088730220C873002008740020487496
:10BAC00000208874DFF81C0401F036FFB4490870C8
:10BAD0000020B4490860FF20287001F0B5B9AE49D4
:10BAE00000204860AD48006810F5C060086008207C
:10BAF00088722F20C8720120087316204873002016
:10BB000088730220C8730020087400204874002045
:10BB10008874DFF8D00301F00FFFA14908700020FE
:10BB2000A0490860FF20287001F08EB99A490020D2
:10BB300048609A48006810F5C06008600820887264
:10BB40002F20C872022008731620487300208873C3
:10BB50000220C873002008740020487400208874F4
:10BB6000E04801F0E9FE8E49087000208D49086028
:10BB7000FF20287001F068B9874900204860874895
:10BB8000006810F5C0600860082088722F20C87215
:10BB90000320087316204873002088730220C8739E
:10BBA000002008740020487400208874CD4801F0FB
:10BBB000C3FE7B49087000207A490860FF20287086
:10BBC00001F042B97449002048607448026812F5D7
:10BBD000C0620A6008228A722322CA7200220A7393
:10BBE00014224A7301228A730068C8730220087401
:10BBF0000020487400208874BA4801F09DFE68490E
:10BC00000870002067490860FF20287001F01CB907
:10BC10006149002048606148026812F5C0620A600C
:10BC200008228A722322CA7201220A7314224A73DA
:10BC300001228A730068C8730320087400204874C6
:10BC400000208874A74801F077FE5549087000204D
:10BC500054490860FF20287001F0F6B84E490020D2
:10BC600048604E48026812F5C0620A6008228A7273
:10BC70002322CA7202220A7314224A7301228A738F
:10BC80000068C87304200874002048740020887479
:10BC9000944801F051FE4249087000204149086073
:10BCA000FF20287001F0D0B83B49002048603B4895
:10BCB000026812F5C0620A6008228A722322CA72E0
:10BCC00003220A7314224A7301228A730068C8731C
:10BCD000052008740020487400208874814801F011
:10BCE0002BFE2F49087000202E490860FF20287085
:10BCF00001F0AAB82849002048602848006810F5DB
:10BD0000C0600860082088722F20C8720020087365
:10BD10001A204873002088730020C873002008741C
:10BD200000204874002088746E4801F005FE1C490C
:10BD3000087000201B490860FF20287001F084B8BB
:10BD40001549002048601548006810F5C06008607B
:10BD5000082088722F20C872012008731A204873A7
:10BD6000002088730020C8730020087400204874E5
:10BD7000002088745B4801F0DFFD0949087000204D
:10BD800008490860FF20287001F05EB87D1500208A
:10BD90007C1500207B1500202814002000000020C6
:10BDA0007915002020150020DFF8141A00204860C3
:10BDB000DFF8100A006810F5C0600860082088727B
:10BDC0002F20C872022008731A204873002088733D
:10BDD0000020C87300200874002048740020887474
:10BDE000404801F0A9FDDFF8E01908700020DFF8F5
:10BDF000DC190860FF20287001F026B8DFF8C019B0
:10BE000000204860DFF8BC09006810F5C0600860D9
:10BE1000082088722F20C872032008731A204873E4
:10BE2000002088730020C873002008740020487424
:10BE3000002088742B4801F07FFDDFF88C19087012
:10BE40000020DFF888190860FF20287000F0FCBF90
:10BE5000DFF86C1900204860DFF86809026812F505
:10BE6000C0620A6008228A722322CA7200220A7300
:10BE700018224A7301228A7300688038C87301202F
:10BE800008740020487480208874164801F054FD1E
:10BE9000DFF8341908700020DFF830190860FF203F
:10BEA000287000F0D1BFDFF8181900204860DFF8D3
:10BEB0001409026812F5C0620A6008228A722322FD
:10BEC000CA7201220A7318224A7301228A73006817
:10BED0008038C87302200874002048748020887459
:10BEE000004801E00068004001F026FDDFF8D818A6
:10BEF00008700020DFF8D4180860FF20287000F0D8
:10BF0000A3BFDFF8BC1800204860DFF8B80802685B
:10BF100012F5C0620A6008228A722322CA720222C3
:10BF20000A7318224A7301228A7300688038C87322
:10BF3000032008740020487480208874DFF8B80E4D
:10BF400001F0FAFCDFF8801808700020DFF87C1898
:10BF50000860FF20287000F077BFDFF86418002029
:10BF60004860DFF86008026812F5C0620A600822C3
:10BF70008A722322CA7203220A7318224A73012288
:10BF80008A7300688038C8730420087400204874DD
:10BF900080208874DFF8600E01F0CEFCDFF82818EE
:10BFA00008700020DFF824180860FF20287000F0D7
:10BFB0004BBFDFF80C1800204860DFF80808006865
:10BFC00010F5C0600860082088722320C872002025
:10BFD00008731A204873012088731020C87300204A
:10BFE00008744120487460208874DFF80C0E01F05A
:10BFF000A3FCDFF8D41708700020DFF8D017086022
:10C00000FF20287000F020BFDFF8B4170020486040
:10C01000DFF8B007006810F5C0600860082088727B
:10C020002320C872002008731A20487302208873E6
:10C030001020C87300200874402048746020887461
:10C04000DFF8B40D01F078FCDFF87C1708700020F1
:10C05000DFF878170860FF20287000F0F5BEDFF8E1
:10C06000601700204860DFF85C07006810F5C060CA
:10C070000860082088722320C872002008731A20E4
:10C080004873032088731020C873002008740720A9
:10C09000487424208874DFF8600D01F04DFCDFF84F
:10C0A000281708700020DFF824170860FF20287088
:10C0B00000F0CABEDFF8081700204860DFF8040768
:10C0C000006810F5C0600860082088722320C872DC
:10C0D000012008731A204873012088732020C87338
:10C0E000002008748120487460208874DFF8080DEF
:10C0F00001F022FCDFF8D01608700020DFF8CC1623
:10C100000860FF20287000F09FBEDFF8B416002002
:10C110004860DFF8B006006810F5C06008600820CD
:10C1200088722320C872012008731A2048730220E5
:10C1300088732020C873002008748520487460200C
:10C140008874DFF8B40C01F0F7FBDFF87C16087098
:10C150000020DFF878160860FF20287000F074BE19
:10C16000DFF85C1600204860DFF85806006810F51C
:10C17000C0600860082088722320C87202200873FB
:10C180001A204873012088732020C8730020087487
:10C190008320487460208874DFF85C0C01F0CCFBCD
:10C1A000DFF8241608700020DFF820160860FF2052
:10C1B000287000F049BEDFF8081600204860DFF85C
:10C1C0000406006810F5C06008600820887223200B
:10C1D000C872022008731A20487302208873202036
:10C1E000C873002008748420487460208874DFF8C5
:10C1F000080C01F0A1FBDFF8D01508700020DFF873
:10C20000CC150860FF20287000F01EBEDFF8B015C6
:10C2100000204860DFF8AC05006810F5C0600860D9
:10C22000082088722320C872032008731A204873DC
:10C23000012088732020C87300200874642048748B
:10C2400060208874DFF8B00B01F076FBDFF878151A
:10C2500008700020DFF874150860FF20287000F0D7
:10C26000F3BDDFF85C1500204860DFF85805006872
:10C2700010F5C0600860082088722320C87203206F
:10C2800008731A204873022088732020C873002086
:10C290000874FD20487460208874DFF85C0B01F09E
:10C2A0004BFBDFF8241508700020DFF8201508602C
:10C2B000FF20287000F0C8BDDFF80415002048609A
:10C2C000DFF80005006810F5C0600860082088727B
:10C2D0002F20C8720020087318204873022088732A
:10C2E000FF26CE7300200874002048740020887454
:10C2F000DFF8040B01F020FBDFF8CC1408700020FD
:10C30000DFF8C81408602E7000F09EBDDFF8B0148E
:10C3100000204860DFF8AC04006810F5C0600860D9
:10C32000082088722F20C8720120087318204873D3
:10C33000022088730120C87300200874002048740C
:10C3400000208874DFF8B00A01F0F6FADFF87814FC
:10C3500008700020DFF874140860FF20287000F0D7
:10C3600073BDDFF85C1400204860DFF858040068F3
:10C3700010F5C0600860082088722F20C872022063
:10C38000087318204873022088730120C8730020A6
:10C3900008740020487400208874DFF85C0A01F0FB
:10C3A000CBFADFF8241408700020DFF820140860AE
:10C3B000FF20287000F048BDDFF80414002048601A
:10C3C000DFF80004006810F5C0600860082088727B
:10C3D0002F20C87203200873182048730220887326
:10C3E0000120C8730020087400204874002088745D
:10C3F000DFF8040A01F0A0FADFF8CC13087000207F
:10C40000DFF8C8130860FF20287000F01DBDDFF8BA
:10C41000B01300204860DFF8AC03006810F5C0607E
:10C420000860082088722F20C872002008731A2024
:10C430004873002088730320C8730020087400200C
:10C44000487400208874DFF8B00901F075FADE49FD
:10C4500008700020DD490860FF20287000F0F4BC5F
:10C46000D74900204860D748006810F5C0600860D0
:10C47000082088722F20C872012008731A20487380
:10C48000002088730220C8730020087400204874BC
:10C4900000208874DFF8600901F04EFACA4908707C
:10C4A0000020CA490860FF20287000F0CDBCC449B4
:10C4B00000204860C348006810F5C060086008208C
:10C4C00088722F20C872022008731A204873002037
:10C4D00088730220C873002008740020487400206C
:10C4E0008874DFF8140901F027FAB74908700020B2
:10C4F000B6490860FF20287000F0A6BCB0490020B3
:10C500004860B048006810F5C06008600820887274
:10C510002F20C872032008731A20487300208873E4
:10C520000220C8730020087400204874002088741A
:10C53000DFF8C40801F000FAA34908700020A349FD
:10C540000860FF20287000F07FBC9D4900204860F3
:10C550009C48026812F5C0620A6008228A7223228F
:10C56000CA7200220A7318224A7301228A73006871
:10C570008038C87301200874002048740020887433
:10C58000DFF8740801F0D8F98F49087000208F494E
:10C590000860FF20287000F057BC894900204860DF
:10C5A0008848026812F5C0620A6008228A72232253
:10C5B000CA7201220A7318224A7301228A73006820
:10C5C0008038C873022008740020487400208874E2
:10C5D000DFF8240801F0B0F97B49087000207B499E
:10C5E0000860FF20287000F02FBC754900204860CB
:10C5F0007448026812F5C0620A6008228A72232217
:10C60000CA7202220A7318224A7301228A730068CE
:10C610008038C87303200874002048740020887490
:10C62000DFF8D40701F088F96749087000206749EE
:10C630000860FF20287000F007BC614900204860B6
:10C640006048026812F5C0620A6008228A722322DA
:10C65000CA7203220A7318224A7301228A7300687D
:10C660008038C8730420087400204874002088743F
:10C67000DFF8840701F060F953490870002053493E
:10C680000860FF202870DFE34D49002048604D48D6
:10C69000006810F5C0600860082088722F20C872FA
:10C6A000602008736020487300208873DFF8440A14
:10C6B0000268CA730268120A0A740268120C4A7489
:10C6C0000068000E8874DFF8300701F035F93E4944
:10C6D000087046F260003D490860FF202870B3E30F
:10C6E0003749002048600020086008208872012037
:10C6F000C87203200873002048730020887300204C
:10C70000C873002008740020487400208874DFF883
:10C71000E80601F011F92C49087000202B49086047
:10C72000FF20287090E326490020486025480068D3
:10C7300010F500700860082088720620C87200207A
:10C74000087300204873002088730020C8730020FD
:10C7500008740020487400208874DFF89C0601F0FB
:10C76000EBF819490870002018490860FF2028706C
:10C770006AE31349002048601248006810F5C06061
:10C780000860082088724020C8720A20087322209E
:10C790004873002088730020C873002008740020AC
:10C7A000487400208874DFF8500601F0C5F8064987
:10C7B0000870002005490860FF20287044E300BF8E
:10C7C00028140020000000207915002020150020EA
:10C7D000DFF8241900204860DFF82009006810F510
:10C7E000C0600860082088724020C8720B2008735F
:10C7F00022204873002088730020C873002008742A
:10C800000020487400208874DFF8EC0501F094F8EB
:10C81000DFF8EC1808700020DFF8E8180860FF2047
:10C82000287011E3DFF8D01800204860DFF8CC084A
:10C83000006810F5C0600860082088724020C87247
:10C840000C20087322204873002088730020C873CE
:10C85000002008740020487400208874DFF89805D0
:10C8600001F06AF8DFF8981808700020DFF89418D3
:10C870000860FF202870E7E2DFF87C18002048609D
:10C88000DFF87808006810F5C0600860082088723A
:10C890004020C8720D20087322204873002088733E
:10C8A0000020C87300200874002048740020887499
:10C8B000DFF8440501F040F8DFF844180870002064
:10C8C000DFF840180860FF202870BDE2DFF8281864
:10C8D00000204860DFF82408006810F5C060086098
:10C8E000082088724020C8720E20087322204873E6
:10C8F000002088730020C87300200874002048744A
:10C9000000208874DFF8F00401F016F8DFF8F01763
:10C9100008700020DFF8EC170860FF20287093E211
:10C92000DFF8D41700204860DFF8D007006810F562
:10C93000C0600860082088724020C8720F20087309
:10C9400022204873002088730020C87300200874D8
:10C950000020487400208874DFF89C0400F0ECFF8D
:10C96000DFF89C1708700020DFF898170860FF2098
:10C97000287069E2DFF8801700204860DFF87C0744
:10C98000006810F5C0600860082088724020C872F6
:10C990001020087322204873002088730020C87379
:10C9A000002008740020487400208874DFF84804D0
:10C9B00000F0C2FFDFF8481708700020DFF84417C6
:10C9C0000860FF2028703FE2DFF82C170020486045
:10C9D000DFF82807006810F5C0600860082088723A
:10C9E0004020C872112008732220487300208873E9
:10C9F0000020C87300200874002048740020887448
:10CA0000DFF8F40300F098FFDFF8F4160870002058
:10CA1000DFF8F0160860FF20287015E2DFF8D8165E
:10CA200000204860DFF8D406006810F5C060086098
:10CA3000082088724020C87224200873222048737E
:10CA4000002088730020C8730020087400204874F8
:10CA500000208874E84800F06FFFDFF8A416087023
:10CA60000020DFF8A0160860FF202870ECE1DFF856
:10CA7000881600204860DFF88406006810F5C06062
:10CA80000860082088724020C87225200873222080
:10CA90004873002088730020C873002008740020A9
:10CAA000487400208874D44800F046FFDFF8501620
:10CAB00008700020DFF84C160860FF202870C3E1E2
:10CAC000DFF8341600204860DFF83006006810F503
:10CAD000C0600860082088724020C8722620087351
:10CAE00022204873002088730020C8730020087437
:10CAF0000020487400208874BF4800F01DFFDFF854
:10CB0000001608700020DFF8FC150860FF20287070
:10CB10009AE1DFF8E41500204860DFF8E0050068DE
:10CB200010F5C0600860082088724020C872272075
:10CB3000087322204873002088730020C8730020E7
:10CB400008740020487400208874AB4800F0F4FE9C
:10CB5000DFF8AC1508700020DFF8A8150860FF208A
:10CB6000287071E1DFF8901500204860DFF88C052F
:10CB7000006810F5C0600860082088724020C87204
:10CB80002820087322204873002088730020C8736F
:10CB9000002008740020487400208874964800F033
:10CBA000CBFEDFF85C1508700020DFF85815086030
:10CBB000FF20287048E1DFF8401500204860DFF8CA
:10CBC0003C05006810F5C0600860082088724020AD
:10CBD000C87229200873222048730020887300201F
:10CBE000C8730020087400204874002088748248AC
:10CBF00000F0A2FEDFF8081508700020DFF8041529
:10CC00000860FF2028701FE1DFF8EC140020486066
:10CC1000DFF8E804006810F5C0600860082088723A
:10CC20004020C872072008732420487300208873AE
:10CC30000020C87300200874002048740020887405
:10CC40006D4800F079FEDFF8B81408700020DFF8B6
:10CC5000B4140860FF202870F6E0DFF89C14002070
:10CC60004860DFF89804006810F50070086008203C
:10CC700088724F20C872002008730020487300207B
:10CC800088730020C87300200874002048740020B6
:10CC90008874594800F050FEDFF8641408700020D2
:10CCA000DFF860140860FF202870CDE0DFF84864EA
:10CCB00000207060DFF84474386810F54070306010
:10CCC0000820B072DFF840040168F1720168090AB7
:10CCD00031730168090C71730068000EB073DFF8DE
:10CCE0002C040168F1730168090A31740168090CA8
:10CCF00071740068000EB074DFF80484DFF8F890F7
:10CD00003100484600F018FE88F8000000207060EE
:10CD1000386810F5806030600820B072DFF8F003EA
:10CD20000168F1720168090A31730168090C7173B5
:10CD30000068000EB073DFF8DC030168F17301686E
:10CD4000090A31740168090C71740068000EB0742E
:10CD50003100484600F0F0FD88F8000000207060C7
:10CD6000386810F5007030600820B0725F20F072F3
:10CD700000203073002070730020B0730020F07327
:10CD800000203074002070740020B07431004846D8
:10CD900000F0D2FD88F800000020DA490860FF208A
:10CDA000287051E0D44900204860802008600820A5
:10CDB00088720020C8720020087300204873002089
:10CDC00088730020C8730020087400204874002075
:10CDD0008874094800F0B0FDC9490870CE480021A8
:10CDE00001700021CD4A1170002101700020C54959
:10CDF0000860FF20287027E000680040C6490978D5
:10CE000001291FD1C549097801291BD1C4490978D5
:10CE1000012917D1C3490968BB4A1268914211D14F
:10CE2000C1490968B94A126891420BD1BF490968E2
:10CE3000B84A1268914205D1BD490978012901D14A
:10CE400002210170FF202870BDE8F18317B581B081
:10CE5000A949002048609DF8040000029DF80520C3
:10CE600050FA82F00860082088729DF80600C872A7
:10CE70009DF8070008739DF8080048739DF80900A5
:10CE800088739DF80A00C8739DF80B0008749DF81C
:10CE90000C0048749DF80D008874994CA54800F06A
:10CEA0004BFD20702078042806D10120A24908708B
:10CEB0000120A249087005E000209F490870002069
:10CEC0009E4908701FBD1CB501211C2000F04AFAC4
:10CED0004FF40070009003208DF8050002208DF8BB
:10CEE000040000208DF8060001208DF80700694637
:10CEF000934801F063F85FF04051002000F07AF9A8
:10CF00001C20009003208DF8050001208DF80400FE
:10CF100000208DF8060001208DF80700894C694635
:10CF2000200001F04BF8F020009000208DF8040064
:10CF300000208DF8070000208DF805006946824822
:10CF400001F03CF84020009000208DF80400002003
:10CF50008DF8070000208DF805006946200001F0DB
:10CF60002DF8FDF7B6FE7949086013BD30B589B0DC
:10CF70000121022000F0F6F9754C0922052120005C
:10CF800001F06FFA09220621200001F06AFA092255
:10CF90000821200001F065FA09220921200001F092
:10CFA00060FA4FF45870079002208DF8200002209C
:10CFB0008DF8210000208DF8220001208DF823003B
:10CFC00007A9200000F0FAFF01215FF0C06000F027
:10CFD000F7F9604C200000F0CBFA564D280000F025
:10CFE000C7FA00208DF8160000208DF817000020E9
:10CFF0008DF8180000208DF8190000208DF81A0017
:10D0000001208DF81B0000208DF8120000208DF803
:10D01000130002208DF8140004208DF815000A205A
:10D02000ADF8100004A9200000F0C9FA04A92800F6
:10D0300000F0C5FA00208DF80A0000208DF80B00E2
:10D0400001208DF80C000020ADF800003F4800687A
:10D05000C000ADF802000020ADF804004FF6F870F3
:10D06000ADF806000020ADF8080001208DF80D0095
:10D07000684600F0BBFB0E208DF80A0000208DF8FA
:10D080000B0001208DF80C000020ADF800000020FE
:10D09000ADF802000020ADF804000020ADF8060055
:10D0A0000020ADF8080001208DF80D00684600F062
:10D0B0009DFB01220221200000F0C8FD0122102169
:10D0C000200000F0C3FD01220121200000F0BEFD80
:10D0D00001220221280000F0B9FD012210212800C0
:10D0E00000F0B4FD01220121280000F0AFFD09B0DD
:10D0F00030BD0000F814002028140020000000209B
:10D1000079150020201500200C150020081500209E
:10D11000001500200415002085150020861500202C
:10D1200087150020E0140020DC140020D414002017
:10D1300082150020006800408A1500208915002013
:10D140000008024000100240000C02406C14002055
:10D15000000402400064004080B514208DF80000F7
:10D1600000208DF8010000208DF8020001208DF8CC
:10D170000300684601F01EFB15208DF8000000201A
:10D180008DF8010001208DF8020001208DF80300C8
:10D19000684601F00FFB13208DF8000001208DF888
:10D1A000010004208DF8020001208DF8030068467C
:10D1B00001F000FB40208DF8000000208DF80100F8
:10D1C00002208DF8020001208DF80300684601F06E
:10D1D000F1FA3F208DF8000001208DF801000520B4
:10D1E0008DF8020001208DF80300684601F0E2FA94
:10D1F00001BDFEE770B505000C000026002D0ED025
:10D20000B5F1804F0BD0B5F1004F08D0B5F1404FCC
:10D2100005D040F2BA31DFF8A401FFF7EAFF002C95
:10D2200011D0B4F1005F0ED0B4F1205F0BD0B4F197
:10D23000405F08D0B4F1605F05D040F2BB31DFF849
:10D240007C01FFF7D6FFDFF81421116821F0784147
:10D2500054EA05000143116070BD2DE9F04F010053
:10D26000002200230024022500200226DFF8EC70B3
:10D27000D7F800C01CF00C0CE646BEF1000F06D03B
:10D28000BEF1040F07D0BEF1080F08D037E0DFF879
:10D29000E4210A6036E0DFF8E0210A6032E0DFF8DE
:10D2A000C0E0DEF80020C2F380521000DEF800205B
:10D2B00012F03F02160000280BD0DFF8BC21B2FBB1
:10D2C000F6F8DEF80020C2F3881202FB08F84446A4
:10D2D0000AE0DFF8A021B2FBF6F8DEF80020C2F386
:10D2E000881202FB08F84446DEF80020C2F301422F
:10D2F000521C52001500B4FBF5F20A6002E0DFF8A0
:10D3000074210A60D7F8008018F0F0085FEA181856
:10D31000DFF868A11AF80820D1F800E03EFA02FE12
:10D32000C1F804E0D7F8009019F4E0595FEA9929B0
:10D330001AF809E0D1F804B03BFA0EFBC1F808B0C6
:10D340003F6817F460477F0B1AF807A0D1F804B0C4
:10D350003BFA0AFBC1F80CB0BDE8F08F0838024078
:10D360000438024038B504000D00DFF8140104420F
:10D3700001D1002C04D14FF4EC611048FFF739FFC4
:10D380002800C0B2002808D02800C0B2012804D06C
:10D3900040F262710948FFF72CFF2800C0B2002854
:10D3A00005D0DFF8E00001682143016004E0DFF808
:10D3B000D4000168A143016031BD00006CEE00089B
:10D3C00038B504000D0014F4585F01D1002C05D1CC
:10D3D00040F2D771DFF8B000FFF70BFF2800C0B2B2
:10D3E000002809D02800C0B2012805D04FF4FB6105
:10D3F000DFF89400FFF7FDFE2800C0B2002805D03A
:10D40000DFF8880001682143016004E0DFF87C0058
:10D410000168A143016031BD38B504000D0014F46A
:10D42000585F01D1002C05D140F69F01DFF858006C
:10D43000FFF7DFFE2800C0B2002809D02800C0B2E4
:10D44000012805D04FF40A61DFF83C00FFF7D1FE58
:10D450002800C0B2002805D0DFF83400016821435D
:10D46000016004E0DFF828000168A143016031BDDC
:10D47000000000000024F40000127A0004000020E4
:10D4800000E80B01303802406CEE000840380240E2
:10D49000203802403148324908600968314A116039
:10D4A00010F520603049086000203049086070475E
:10D4B00037B52B4C2B4D28682168884205D12B4865
:10D4C0000068002801D0002016E0286869460A227A
:10D4D00001F0C6F928680A302860286822490968DE
:10D4E000884201D31D48286028682168884202D1FB
:10D4F00001201E49086001203EBD3EB50400184DC4
:10D50000184800682968884205D118480068002832
:10D5100001D1002017E0684629680A2201F0A0F92D
:10D5200028680A302860200069460A2201F098F92C
:10D5300028680D490968884201D3084828600020FE
:10D540000A49086001203EBD80B5064800210160FF
:10D55000006803490860FFF79DFF01BD140000202B
:10D5600068150020641500206C150020701500203F
:10D5700038B50400DFF8C856AC4208D0DFF8C4065E
:10D58000844204D0A921DFF8C006FFF732FEAC4286
:10D590000AD101215FF00070FFF73EFF00215FF02C
:10D5A0000070FFF739FF09E001215FF08060FFF7AD
:10D5B00033FF00215FF08060FFF72EFF31BDF8B52B
:10D5C00004000D0000260027DFF87406844208D00E
:10D5D000DFF87006844204D0C921DFF86C06FFF73B
:10D5E00008FEA879002807D0A879012804D0CA210C
:10D5F000DFF85406FFF7FDFDE879002807D0E87949
:10D60000012804D0CB21DFF84006FFF7F2FD287A8D
:10D61000002807D0287A012804D0CC21DFF828067A
:10D62000FFF7E7FD687A002807D0687A012804D060
:10D63000CD21DFF81406FFF7DCFDA87A002807D01B
:10D64000A87A012804D0CE21DFF8FC05FFF7D1FD30
:10D65000E87A002807D0E87A012804D0CF21DFF843
:10D66000E805FFF7C6FDA87800280DD0A8780128A6
:10D670000AD0A878022807D0A878032804D0D0219F
:10D68000DFF8C405FFF7B5FDE87800280DD0E8788D
:10D6900001280AD0E878022807D0E878032804D0C7
:10D6A000D121DFF8A405FFF7A4FD2879102804DBB9
:10D6B000D221DFF89405FFF79CFD6879082804DB88
:10D6C000D321DFF88405FFF794FD2888002804D0D3
:10D6D000288840F20141884204DBD421DFF8680544
:10D6E000FFF787FD206830F002002060206850F0CE
:10D6F000010020606068C00705D44FF6FF708742C4
:10D7000001D07F1CF6E76068C00701D400206BE001
:10D71000A879012804D1206850F08000206003E03F
:10D72000206830F080002060E879012804D120686A
:10D7300050F04000206003E0206830F0400020609E
:10D74000287A012804D1206850F02000206003E0EE
:10D75000206830F020002060687A012804D1206819
:10D7600050F01000206003E0206830F010002060CE
:10D77000A87A012804D1206850F00800206003E056
:10D78000206830F008002060E87A012804D1206881
:10D7900050F00400206003E0206830F004002060B6
:10D7A000A878E978090651EA8071287951EA0041A0
:10D7B000687951EA00512888401E0143E1612068E0
:10D7C000400840002060002007006068C00705D5C1
:10D7D0004FF6FF70874201D07F1CF6E76068C007F4
:10D7E00001D5002000E00120C0B2F2BD70B50400F8
:10D7F0000025A07A1C2805DB40F25111DFF848040F
:10D80000FFF7F7FCE07A002808D0E07A012805D07D
:10D810004FF4A971DFF83004FFF7EBFC207B002800
:10D8200008D0207B012805D040F25311DFF81804FE
:10D83000FFF7DFFC2089002808D02089012805D0C7
:10D840004FF4AA71DFF80004FFF7D3FC607B0028D7
:10D8500008D0607B012805D040F25511DFF8E803BD
:10D86000FFF7C7FC0120A17A10FA01F1DFF8882444
:10D87000106850F001001060DFF8803418688843A9
:10D880001860207B002815D1DFF8740405688D43EB
:10D890000560DFF87004E588668856EA0546A57AD3
:10D8A00040F83560A57A00EBC500A588268856EAC1
:10D8B00005464660207B012815D1DFF84404056841
:10D8C0000D430560DFF83C042588668856EA054666
:10D8D000A57A40F83560A57A00EBC500A588E688F2
:10D8E00056EA05464660E07A002805D1DFF81804BC
:10D8F00005688D43056004E0DFF80C0405680D43FE
:10D9000005602089002804D1DFF8040405688D43F0
:10D9100005602089012804D1DFF8F40305680D4370
:10D920000560607B012802D1186808431860106800
