:020000040800F2
:10000000401F00203F0A00082D0A00082F0A0008A0
:10001000310A0008330A0008350A00080000000011
:10002000000000000000000000000000370A000887
:10003000390A0008000000003B0A00083D0A0008D9
:1000400070B513465A1E8BB111F8013B08240546C2
:1000500040001E0648BF40F00100002D44BFDFF8FD
:10006000B45668405B00641EF1D1EAE770BD38B554
:1000700004460020009000F005FB816940690D688E
:10008000C01EA84224BF49688D4212D3884224BFB3
:10009000DFF8840681420CD36A1A4FF0FF30FFF775
:1000A000CFFF04226946FFF7CBFF20602968884212
:1000B00001D0002032BD012032BD10B5DFF85C0652
:1000C0000268520131D5DFF8582600231360136807
:1000D0004C68E40044F004042343136053681B0994
:1000E0001B01536053688C7A234353604C7B8B7B9A
:1000F000240444EA03630C7B43EA0423CC7A2343BD
:1001000093604C7C8B7C240444EA03630C7CC97BA5
:1001100043EA04231943D160116841F001011160E1
:1001200001688907FCD5002010BD042010BDDFF850
:10013000F4150A6802F0040202720A68D2084260EA
:100140004A6802F00F0282728A68C2728A68120AD2
:1001500002738A68120C42738A68120E8273CA682C
:10016000C273CA68120A0274CA68120C4274C9685F
:10017000090E81742020DFF8B01508607047E0B5E3
:100180000027029700F0FAFADFF8A055286820F45B
:10019000604040F0A00028600720A8624FF0007087
:1001A000A863DFF88C05016841F099010160E86EF1
:1001B00000F07C44E86E40F08070E866B4F1406F77
:1001C00008BF03200BD0B4F1806F14BFB4F1A05F5F
:1001D000042004D0B4F1105F0CBF06200020DFF82B
:1001E00054158860DFF85005019000F0A3FD0199D7
:1001F0000861A86940F00070A861A86920F000704B
:10020000A861DFF83855286820F0020028602868C7
:1002100040F0010028604FF6FF70014600E0491EE3
:100220006A68D20701D40029F9D16968C90744D5A1
:10023000296801F001112960DFF80415E9612968D6
:1002400049084900296000E0401E6968C90701D5D6
:100250000028F9D16868C0072FD4DFF8E8040168E6
:1002600041F001010160C169C908C900C161C168EB
:1002700041F00701C160019ADFF8CC14126942F421
:10028000183201EAC20202644164DFF8C0248264C9
:10029000C1644FF49812026541654168C908C900FC
:1002A00041604169C908C9004161C16941F0070164
:1002B000C16101684908490001600420DFF89064C9
:1002C0003071777172B6DFF86C048068002827D02F
:1002D0006846FFF7CCFEC8B900F029FD00F0D5F95B
:1002E00001980069400340F0805030600820B071F0
:1002F000782000F0BFF97120F07200983073202050
:100300007073DFF830048068B07318E0DFF82414ED
:10031000DFF84004DFF83C244F6000F0C0F90EE045
:100320000198DFF810140069096841EA403040F094
:10033000805030600420B0714C2000F09BF900F038
:1003400096F945F2555000F097FA012000F097FA1F
:100350004FF4206000F096FA00F097FA00F09AFA55
:10036000AAE0DFF8F403142101FB070000F5856023
:10037000FFF7DDFE2746E86810F0030F1FBF781C6B
:10038000C4B202988442ECD10298B842E8D00299F3
:10039000DFF8C403142202FB010000F585646068E5
:1003A00080014FEAD048207BFF281ED101980069C8
:1003B00048EA403040F0806030600820B071207B17
:1003C0003072607B7072A07BB072E07BF072207C38
:1003D0003073607C7073A07CB073E07A262805D0FF
:1003E00039283CD0832800F0168161E06620F07146
:1003F000A17B607B00EB01204FF6F371401A06D021
:1004000008381ED0401E12D0401E0CD050E000F024
:100410008EFC00F03AF97120F072009830730020E1
:1004200070730220F3E000F07FFC00900DE000F01C
:1004300029F90168F1724168317381687173C0688C
:10044000E5E06846FFF713FE0098F0720098000A96
:1004500030730098000C70730098000ED7E0607B3A
:10046000A17B00EB01204FF6F971401A00F0BF802C
:10047000401E24D0801E28D0401E19D14820F07183
:100480000020F072B081B07300F0F1F8A948C0F814
:100490000080607BA17B00EB0120A649486072B61A
:1004A00000F0F3F900F00EFAAA48AA4A00F0F7F8B3
:1004B0000298401CC0B2029000F0E7F95BE7032409
:1004C0005420F071F4720020A0E000F0DBF8E17B32
:1004D00080690818217C00F0C3F800EB016848200F
:1004E000F07100F0C4F801999C48086001999C489B
:1004F000486001999B488860217CE07B00F0B0F85F
:1005000000EB01600199C8600024019800F0D3F865
:100510000AE000F0EBF806F11001615C484006F1DA
:1005200010016054641CA4B200F0ACF801698C4264
:10053000EFD38269DFF830920124904524BF4069EF
:1005400040453AD3481E18EA000F36D100F0AEF904
:1005500000F09BF9854880450CD285484FF0000A91
:100560007D4A10F8011B52440AF1010ABAF1100F3A
:100570001177F5D3C2464FF0000B06E000F085F985
:1005800000240AF1020A0BF1010B00F07BF800696C
:100590001FFA8BFBBBEB500F0DD299F8000099F8B6
:1005A000011040EA0121504600F093F9092809F1B1
:1005B0000209E3D0012400F085F9002C13D103E0F7
:1005C000641C08F10408A4B200F05CF80069B4EB04
:1005D000900F09D2D8F8000006F1100151F824104C
:1005E0008842EDD002246BE74E20F07110E068469F
:1005F000FFF73DFD30B95420F071FF20F0723073E9
:10060000707304E04E20F0710020F072B081B0737E
:1006100000F02DF84CE7E37B94F810C0607BA17BE1
:1006200003EB0C2300EB012094F811C0A47C80059F
:10063000800D06F1100103EB0C43820803EB046309
:1006400041F822308B21F17106F11001415CF17209
:1006500041494018417D3173817D7173C07DD6E77A
:1006600000EB0120617C00EB0140A17C7047284633
:10067000394922E5F071FF203072FE207072FF20B0
:10068000B07270473348406870470090000B009983
:1006900000F0F00001F00F0108430090704740683F
:1006A000806950F8041F496811600068006880F391
:1006B00008880846004730B500212E4A8954491C55
:1006C000C9B20029FAD1002301F00F052D5C8C5C22
:1006D000EB18E318DBB29D5C8D54491CC9B29C54E5
:1006E0000029F1D124484170017030BD10B5224875
:1006F000204A01784478491C0170C9B28B5C1C19EE
:100700004470E4B2A05CA3548854A15C0818C0B241
:10071000805C10BDB71DC1040010000808640040D3
:1007200080650040B06500400C640040083802401D
:10073000240402400000002028040020006400403F
:100740000700420000660040F8FFFF1F8803130007
:10075000180000200C000020140000200827390D8C
:1007600093A4C97E8195F982280000200014000816
:10077000081000083C1800203C1900203748384A6F
:1007800082B0016841F001010160002181600168CF
:100790001140016033494160016821F4802101600A
:1007A0000021C16001910091016841F48031016034
:1007B000016801F4003100910199491C01910099EF
:1007C00019B90199B1F5A04FF2D10168490C01F0B6
:1007D00001010091009901293AD1016C41F0805149
:1007E000016421490A6842F440420A6082688260DA
:1007F000826842F400428260826842F4A0528260C1
:100800001A4A4260026842F08072026002689201F5
:10081000FCD50A6842F480320A604A68D203FCD5EB
:100820000A6842F400320A604A689203FCD540F23A
:1008300005710F4A116081688908890081608168AB
:1008400041F002018160816801F00C010829FAD1B0
:100850004FF000600749086002B07047003802405E
:10086000FFFFF6FE1030002400700040085A4007D9
:10087000003C024008ED00E0094908607047094962
:100880000860704708490860704705494AF6AA2081
:100890000860704702494CF6CC4008607047000081
:1008A000003000400430004008300040DFF8A00075
:1008B000C168002905D5DFF89C100160DFF89810A9
:1008C00001607047DFF89400016841F00041016069
:1008D000704770B500F01DF809280CD100F012F82F
:1008E00040F4807000F008F8258000F03BF8316893
:1008F00049084900316070BD3060306840F0010047
:1009000030607047154E306820F4407030603068B9
:10091000704704460D4625E011490A680920D203B4
:1009200001D5012070470A68D20601D5062070471C
:100930000A68D20501D5022070470A6812F0E00F5C
:1009400001D0072070470968890748BF0820704711
:10095000043C024023016745AB89EFCD103C0240C7
:100960000C3C024080B509208DF80000FFF7D4FF51
:100970008DF800009DF800000128F7D09DF80000D8
:1009800002BD10B450F8041B79B102684368121814
:100990000830DC0744BFA9F10104E31852F8044B06
:1009A00043F8044B091FF9D1ECE710BC7047000075
:1009B00010B5074979441831064C7C44163404E0DC
:1009C0000A68081D511888470146A142F8D110BD98
:1009D0000800000018000000ABFFFFFF0800000047
:1009E0006C0000000C000020000000000120C04648
:1009F000002801D0FFF7DCFF0020C046C046FFF70B
:100A0000BEFB00F000F800F001B8000007463846D1
:100A100000F002F8FBE7000080B5C046C046024A7D
:100A200011001820ABBEFBE7260002007047FEE76E
:100A3000FEE7FEE7FEE77047704770477047C04625
:100A4000C046C046C046FFF7D1FF000000000000CE
:100A50000C0D0008FFF7EABFFFF7E9BFFFF7E8BF9B
:100A6000FFF7E7BFFFF7E6BFFFF7E5BFFFF7E4BF1C
:080A7000FFF7E3BFFFF7E2BF4F
:040D0000FFFFFFFFF3
:040D040000000100EA
:040D080000020000E5
:100D0C000200000001000000110000000A000000B9
:0C0D1C0000040000FFFF010800100008A8
:100D28000748006870470748006870470648006829
:100D38006FEA201000F00F0040F0700070470000CC
:0C0D4800000D0008040D0008100002401F
:0400000508000A3FA6
:00000001FF
