:020000040800F2
:10000000401F00208F0A00087D0A00087F0A0008B0
:10001000810A0008830A0008850A00080000000021
:10002000000000000000000000000000870A000837
:10003000890A0008000000008B0A00088D0A0008E9
:1000400070B510E011F8014B082305464000260664
:1000500048BF40F00100002D44BFDFF8E45668407F
:1000600064005B1EF1D113465A1E002BEAD170BD0D
:1000700038B5044600200090DFF8C816486881694A
:1000800040690D68C01EA84222BF091D09688D4243
:1000900012D3884224BFDFF8B00681420CD36A1A1B
:1000A0004FF0FF30FFF7CCFF04226946FFF7C8FF8F
:1000B00020602968884201D0002032BD012032BD75
:1000C00030B5DFF888261068430131D5DFF8803677
:1000D0000020186018684C68E40044F004042043D1
:1000E000186058680009000158605C68887A044309
:1000F0005C604C7B887B0D7B240444EA0064C87AF6
:1001000044EA052404439C604C7C887C0D7C2404D8
:1001100044EA0064C87B44EA05240443DC601868B0
:1001200040F00100186011688807FCD5002030BD40
:10013000042030BDDFF81C160A6802F004020272C7
:100140000B68DB0843604A6802F00F0282728A681B
:10015000C2728A68120A02738A68120C42738A6831
:10016000120E8273CA68C273CA68120A0274CA681D
:10017000120C4274C968090E81742020DFF8D8156A
:1001800008607047F8B50020029000F007FBDFF828
:10019000CC45206820F4604040F0A000206000279B
:1001A0000720A0624FF00070A063DFF8B40501687B
:1001B00041F099010160E06EE16E00F07C4041F099
:1001C0008071B0F1406FE16608BF03200BD0B0F141
:1001D000806F14BFB0F1A05F042004D0B0F1105FB5
:1001E0000CBF06200020DFF87C15DFF87C55DFF817
:1001F0007C65886041F614002844019000F09AFD67
:1002000001990861A06940F00070A061A06920F028
:100210000070A061306820F002003060316841F069
:10022000010131604FF6FF7108467268D30703D4AD
:10023000002818BF401EF8D177E1002918BF491ED9
:1002400040F0808182E1DFF81C154F60DFF8F41484
:100250004868806950F8042F52F8043F0B6000682A
:10026000026882F308881946884712E001980169FC
:10027000DFF8F00402680420A87242EA41324C2000
:10028000E87242F08052FF20FE216A602873697391
:10029000A87300F018FA45F2555000F005FB012054
:1002A00000F005FB4FF4206000F004FB00F005FBBC
:1002B00000F008FB71E000F037FD00900BE00168F2
:1002C000E9734168297481686974C0685FE06846B1
:1002D000FFF7CEFE0098E8730098000A2874009893
:1002E000000C68740098000E51E000F0E7F94FF63A
:1002F000F973C91A00F00981491E65D0891E6AD0B8
:10030000491E47D14820E87229460020E873288218
:10031000A87400F0D9F9DFF84C04C0F8009000F0A0
:10032000CDF9416000F0C9FA00F0E4FADAF804000F
:10033000806950F8041F091D0968CAF80010006898
:10034000006880F308880846804723E020786178B9
:10035000E278237900EB0120A17801EB0221627998
:10036000C0F3090001EB034101EB0261830848F887
:1003700023108B21E97218F80010E973284441F228
:100380001541084401782974417869748078A8740B
:1003900000F099F97F1C07F0FF0700F08EFA029831
:1003A0003C46F16811F0030F1EBF471C07F0FF0722
:1003B000A74200F02781142205F11401504308449C
:1003C000FFF7B8FE3846ECE703245420E872EC73DC
:1003D00000202882DBE78069A1780144E07801EB06
:1003E0000020217900EB0141607901EB006948218F
:1003F000E97230462946FFF763FE0199DFF8700382
:100400000860DFF87013019841600198DFF8681305
:100410008160E078A178227901EB0021607901EB1D
:100420000241019A01EB0061D1600024019800F0C3
:1004300057F908E000F06FF918F80410484008F880
:100440000400641CA4B2DAF8040001698C42F1D300
:1004500041F214422A440392924682690124914552
:1004600024BF4069484539D3491E19EA010F35D1E7
:1004700000F034FA00F021FAC04881450BD2C048A0
:10048000002141F21C4C10F8012B6B18491C03F899
:100490000C201029F7D3C8464FF0000B06E000F0FF
:1004A0000CFA002408F102080BF1010BA548406882
:1004B00002691FFA8BF1B1EB520F0DD29AF80010BE
:1004C0009AF8010041EA0021404600F01AFA092892
:1004D0000AF1020AE3D0012400F00CFA002C13D137
:1004E0000021484602E0491C001D89B2954A526825
:1004F0001369B1EB930F80F0DE800268039B53F821
:1005000021309A42EFD002245FE76846FFF7B0FD42
:1005100030B95420E872FF20E8732874687436E715
:100520004E20E8720020E87353E77068C2073DD59B
:100530003268944802F001123260F061306840087D
:10054000400030607268D0073FF577AE7068C10731
:100550002CD48D48016841F001010160C269D208C4
:10056000D200C261C16841F00701C160019A8749A8
:10057000136901EAC30242F4981202644164844A96
:100580008264C1644FF49812026541654168C908EC
:10059000C90041604169C908C9004161C16941F0B0
:1005A0000701C161026852085200026004202872EB
:1005B0006F7272B66B49886800283FF457AE684680
:1005C000FFF756FD00287FF43EAE00F0B0FB00F0D0
:1005D0007DF8019801690820A87249037820E87223
:1005E00041F08051FF202873A87369607120E8737F
:1005F000FE21009828746973202068745948816826
:10060000A97446E62746874202903FF4C6AE1420FE
:1006100010FB07F02918886980014FEAD04991F84A
:100620002000FF2828D1019ADFF818A11369287348
:1006300049EA433242F080626A6001F121040822F3
:10064000AA7241F214422078687305EB02086078C0
:10065000A873A078E873E0782874207968746079CA
:10066000A874C97FDAF80400262906D039293FF496
:100670003CAE83293FF46AAE8CE66621E9724FF600
:10068000F37300F01BF8C91A09D008393FF41FAE04
:10069000491E3FF414AE491E3FF40DAE7AE600F059
:1006A00046FB00F013F87120E873009828740020CE
:1006B000687402206BE64E20E87269E62178627861
:1006C00001EB0221704729463046F9E40090000B07
:1006D000009900F0F00001F00F010843009070470E
:1006E00070B500212B4A5154491CC9B20029FAD1D6
:1006F000002301F00F05465D545CF318E318DBB2EC
:10070000D65C5654491CC9B2D4540029F1D12248B0
:100710004170017070BD10B51F481E4A01784478C1
:10072000491C0170C9B2535C1C194470E4B2105DDD
:1007300013555054115D081800F0FF00105C10BDF7
:10074000B71DC1040C000020001000080864004020
:1007500080650040B06500400C64004008380240ED
:100760002404024000000020140000200064004027
:100770000827390D93A4C97E8195F98200140008D9
:10078000081000080700420000660040F8FFFF1F45
:10079000880313003C1800203C1900203A4882B01E
:1007A000016841F47001016000223849086840F096
:1007B000010008608A6036480A6802400A60002228
:1007C00034484860086820F480200860CA600092BD
:1007D0000192086840F4803008600A6802F4003230
:1007E00001920098401C0090019818B9009AB2F547
:1007F000A04FF2D10868400C00F001000190019870
:1008000001283AD10A6C244842F080520A640268F6
:1008100042F4404202608B688B608A681F4B42F44E
:1008200000428A608A6842F4A0528A604B600A687B
:1008300042F080720A600B689A01FCD5026842F4AB
:10084000803202604368DA03FCD5026842F4003269
:10085000026043689A03FCD540F20570104A1060AC
:100860008A68920892008A60886840F00200886076
:10087000886800F00C000828FAD14FF000610948A0
:10088000016002B07047000088ED00E000380240CF
:10089000FFFFF6FE1030002400700040085A4007A9
:1008A000003C024008ED00E0094908607047094932
:1008B0000860704708490860704705494AF6AA2051
:1008C0000860704702494CF6CC4008607047000051
:1008D000003000400430004008300040DFF8A00045
:1008E000C168002905D5DFF89C20DFF89C10026064
:1008F00001607047DFF89400016841F00041016039
:10090000704770B500F01DF809280CD100F012F8FE
:1009100041F4807100F008F8258000F03BF8316860
:1009200049084900316070BD3160306840F0010015
:1009300030607047154E306820F440703060316888
:10094000704704460D4625E011490A680920D30383
:1009500001D5012070470A68D30601D506207047EB
:100960000A68D30501D5022070470A6812F0E00F2B
:1009700001D00720704709688A0748BF08207047E0
:10098000043C024023016745AB89EFCD103C024097
:100990000C3C024080B509208DF80000FFF7D4FF21
:1009A0008DF800009DF800000128F7D09DF80000A8
:1009B00002BD10B450F8041B79B1026843680244C8
:1009C0000830DC0744BFA9F10104E31852F8044BD6
:1009D00043F8044B091FF9D1ECE710BC7047000045
:1009E00010B5074979441831064C7C44163404E0AC
:1009F0000A68081D114488470146A142F8D110BD7C
:100A00002C0000003C0000004EF68851CEF20001A0
:100A1000086840F470000860BFF34F8FBFF36F8F1A
:100A20004FF00070E1EE100A7047000087FFFFFFF3
:100A300008000000680000000C000020000000001A
:100A40000120C046002801D0FFF7CAFFAFF30080A5
:100A50000020AFF30080FFF795FB00F000F800F0F6
:100A600001B800000746384600F002F8FBE7000036
:100A70002021090326311820ABBEF9E77047FEE7B5
:100A8000FEE7FEE7FEE77047704770477047AFF339
:100A90000080FFF7B9FFFFF7D3FF00000000000060
:100AA0000C0D0008FFF7EABFFFF7E9BFFFF7E8BF4B
:100AB000FFF7E7BFFFF7E6BFFFF7E5BFFFF7E4BFCC
:080AC000FFF7E3BFFFF7E2BFFF
:100D0000FFFFFFFF000001000002000002000000E2
:100D100001000000110000000A00000000040000B3
:100D2000FFFF0108001000080748006870470748E7
:100D300000687047064801686FEA211000F00F0054
:100D400040F0700070470000000D0008040D00081E
:040D5000100002404D
:0400000508000A8F56
:00000001FF
